{
  "contractName": "Pool",
  "abi": [
    {
      "constant": true,
      "inputs": [],
      "name": "entryCount",
      "outputs": [
        {
          "name": "",
          "type": "uint256"
        }
      ],
      "payable": false,
      "stateMutability": "view",
      "type": "function"
    },
    {
      "constant": true,
      "inputs": [],
      "name": "allowLockAnytime",
      "outputs": [
        {
          "name": "",
          "type": "bool"
        }
      ],
      "payable": false,
      "stateMutability": "view",
      "type": "function"
    },
    {
      "constant": true,
      "inputs": [],
      "name": "SUM_TREE_KEY",
      "outputs": [
        {
          "name": "",
          "type": "bytes32"
        }
      ],
      "payable": false,
      "stateMutability": "view",
      "type": "function"
    },
    {
      "constant": false,
      "inputs": [],
      "name": "renounceOwnership",
      "outputs": [],
      "payable": false,
      "stateMutability": "nonpayable",
      "type": "function"
    },
    {
      "constant": true,
      "inputs": [],
      "name": "owner",
      "outputs": [
        {
          "name": "",
          "type": "address"
        }
      ],
      "payable": false,
      "stateMutability": "view",
      "type": "function"
    },
    {
      "constant": true,
      "inputs": [],
      "name": "isOwner",
      "outputs": [
        {
          "name": "",
          "type": "bool"
        }
      ],
      "payable": false,
      "stateMutability": "view",
      "type": "function"
    },
    {
      "constant": true,
      "inputs": [],
      "name": "state",
      "outputs": [
        {
          "name": "",
          "type": "uint8"
        }
      ],
      "payable": false,
      "stateMutability": "view",
      "type": "function"
    },
    {
      "constant": false,
      "inputs": [
        {
          "name": "sender",
          "type": "address"
        }
      ],
      "name": "initialize",
      "outputs": [],
      "payable": false,
      "stateMutability": "nonpayable",
      "type": "function"
    },
    {
      "constant": true,
      "inputs": [],
      "name": "moneyMarket",
      "outputs": [
        {
          "name": "",
          "type": "address"
        }
      ],
      "payable": false,
      "stateMutability": "view",
      "type": "function"
    },
    {
      "constant": false,
      "inputs": [
        {
          "name": "newOwner",
          "type": "address"
        }
      ],
      "name": "transferOwnership",
      "outputs": [],
      "payable": false,
      "stateMutability": "nonpayable",
      "type": "function"
    },
    {
      "constant": true,
      "inputs": [],
      "name": "token",
      "outputs": [
        {
          "name": "",
          "type": "address"
        }
      ],
      "payable": false,
      "stateMutability": "view",
      "type": "function"
    },
    {
      "inputs": [
        {
          "name": "_moneyMarket",
          "type": "address"
        },
        {
          "name": "_token",
          "type": "address"
        },
        {
          "name": "_lockStartBlock",
          "type": "uint256"
        },
        {
          "name": "_lockEndBlock",
          "type": "uint256"
        },
        {
          "name": "_ticketPrice",
          "type": "int256"
        },
        {
          "name": "_feeFractionFixedPoint18",
          "type": "int256"
        },
        {
          "name": "_allowLockAnytime",
          "type": "bool"
        }
      ],
      "payable": false,
      "stateMutability": "nonpayable",
      "type": "constructor"
    },
    {
      "anonymous": false,
      "inputs": [
        {
          "indexed": true,
          "name": "sender",
          "type": "address"
        },
        {
          "indexed": false,
          "name": "count",
          "type": "int256"
        },
        {
          "indexed": false,
          "name": "totalPrice",
          "type": "uint256"
        }
      ],
      "name": "BoughtTickets",
      "type": "event"
    },
    {
      "anonymous": false,
      "inputs": [
        {
          "indexed": true,
          "name": "sender",
          "type": "address"
        },
        {
          "indexed": false,
          "name": "amount",
          "type": "int256"
        }
      ],
      "name": "Withdrawn",
      "type": "event"
    },
    {
      "anonymous": false,
      "inputs": [],
      "name": "PoolLocked",
      "type": "event"
    },
    {
      "anonymous": false,
      "inputs": [],
      "name": "PoolUnlocked",
      "type": "event"
    },
    {
      "anonymous": false,
      "inputs": [
        {
          "indexed": true,
          "name": "winner",
          "type": "address"
        }
      ],
      "name": "PoolComplete",
      "type": "event"
    },
    {
      "anonymous": false,
      "inputs": [
        {
          "indexed": true,
          "name": "previousOwner",
          "type": "address"
        },
        {
          "indexed": true,
          "name": "newOwner",
          "type": "address"
        }
      ],
      "name": "OwnershipTransferred",
      "type": "event"
    },
    {
      "constant": false,
      "inputs": [
        {
          "name": "_countNonFixed",
          "type": "int256"
        }
      ],
      "name": "buyTickets",
      "outputs": [],
      "payable": false,
      "stateMutability": "nonpayable",
      "type": "function"
    },
    {
      "constant": false,
      "inputs": [
        {
          "name": "_secretHash",
          "type": "bytes32"
        }
      ],
      "name": "lock",
      "outputs": [],
      "payable": false,
      "stateMutability": "nonpayable",
      "type": "function"
    },
    {
      "constant": false,
      "inputs": [],
      "name": "unlock",
      "outputs": [],
      "payable": false,
      "stateMutability": "nonpayable",
      "type": "function"
    },
    {
      "constant": false,
      "inputs": [
        {
          "name": "_secret",
          "type": "bytes32"
        }
      ],
      "name": "complete",
      "outputs": [],
      "payable": false,
      "stateMutability": "nonpayable",
      "type": "function"
    },
    {
      "constant": false,
      "inputs": [],
      "name": "withdraw",
      "outputs": [],
      "payable": false,
      "stateMutability": "nonpayable",
      "type": "function"
    },
    {
      "constant": true,
      "inputs": [
        {
          "name": "_addr",
          "type": "address"
        }
      ],
      "name": "winnings",
      "outputs": [
        {
          "name": "",
          "type": "int256"
        }
      ],
      "payable": false,
      "stateMutability": "view",
      "type": "function"
    },
    {
      "constant": true,
      "inputs": [
        {
          "name": "_addr",
          "type": "address"
        }
      ],
      "name": "balanceOf",
      "outputs": [
        {
          "name": "",
          "type": "int256"
        }
      ],
      "payable": false,
      "stateMutability": "view",
      "type": "function"
    },
    {
      "constant": true,
      "inputs": [],
      "name": "winnerAddress",
      "outputs": [
        {
          "name": "",
          "type": "address"
        }
      ],
      "payable": false,
      "stateMutability": "view",
      "type": "function"
    },
    {
      "constant": true,
      "inputs": [],
      "name": "netWinnings",
      "outputs": [
        {
          "name": "",
          "type": "int256"
        }
      ],
      "payable": false,
      "stateMutability": "view",
      "type": "function"
    },
    {
      "constant": true,
      "inputs": [],
      "name": "feeAmount",
      "outputs": [
        {
          "name": "",
          "type": "uint256"
        }
      ],
      "payable": false,
      "stateMutability": "view",
      "type": "function"
    },
    {
      "constant": true,
      "inputs": [],
      "name": "randomToken",
      "outputs": [
        {
          "name": "",
          "type": "uint256"
        }
      ],
      "payable": false,
      "stateMutability": "view",
      "type": "function"
    },
    {
      "constant": true,
      "inputs": [],
      "name": "getInfo",
      "outputs": [
        {
          "name": "entryTotal",
          "type": "int256"
        },
        {
          "name": "startBlock",
          "type": "uint256"
        },
        {
          "name": "endBlock",
          "type": "uint256"
        },
        {
          "name": "poolState",
          "type": "uint8"
        },
        {
          "name": "winner",
          "type": "address"
        },
        {
          "name": "supplyBalanceTotal",
          "type": "int256"
        },
        {
          "name": "ticketCost",
          "type": "int256"
        },
        {
          "name": "participantCount",
          "type": "uint256"
        },
        {
          "name": "maxPoolSize",
          "type": "int256"
        },
        {
          "name": "estimatedInterestFixedPoint18",
          "type": "int256"
        },
        {
          "name": "hashOfSecret",
          "type": "bytes32"
        }
      ],
      "payable": false,
      "stateMutability": "view",
      "type": "function"
    },
    {
      "constant": true,
      "inputs": [
        {
          "name": "_addr",
          "type": "address"
        }
      ],
      "name": "getEntry",
      "outputs": [
        {
          "name": "addr",
          "type": "address"
        },
        {
          "name": "amount",
          "type": "int256"
        },
        {
          "name": "ticketCount",
          "type": "uint256"
        },
        {
          "name": "withdrawn",
          "type": "int256"
        }
      ],
      "payable": false,
      "stateMutability": "view",
      "type": "function"
    },
    {
      "constant": true,
      "inputs": [
        {
          "name": "_maxValueFixedPoint24",
          "type": "int256"
        }
      ],
      "name": "maxPoolSizeFixedPoint24",
      "outputs": [
        {
          "name": "",
          "type": "int256"
        }
      ],
      "payable": false,
      "stateMutability": "view",
      "type": "function"
    },
    {
      "constant": true,
      "inputs": [],
      "name": "currentInterestFractionFixedPoint24",
      "outputs": [
        {
          "name": "",
          "type": "int256"
        }
      ],
      "payable": false,
      "stateMutability": "view",
      "type": "function"
    },
    {
      "constant": true,
      "inputs": [],
      "name": "supplyRateMantissa",
      "outputs": [
        {
          "name": "",
          "type": "uint256"
        }
      ],
      "payable": false,
      "stateMutability": "view",
      "type": "function"
    }
  ],
  "bytecode": "0x60806040523480156200001157600080fd5b5060405160e08062002f30833981018060405260e08110156200003357600080fd5b508051602082015160408301516060840151608085015160a086015160c0909601519495939492939192909190848411620000f557604080517f08c379a000000000000000000000000000000000000000000000000000000000815260206004820152602760248201527f6c6f636b20656e6420626c6f636b206973206e6f74206166746572207374617260448201527f7420626c6f636b00000000000000000000000000000000000000000000000000606482015290519081900360840190fd5b600160a060020a03871615156200019357604080517f08c379a000000000000000000000000000000000000000000000000000000000815260206004820152602360248201527f6d6f6e6579206d61726b657420616464726573732063616e6e6f74206265207a60448201527f65726f0000000000000000000000000000000000000000000000000000000000606482015290519081900360840190fd5b600160a060020a03861615156200020b57604080517f08c379a000000000000000000000000000000000000000000000000000000000815260206004820152601c60248201527f746f6b656e20616464726573732063616e6e6f74206265207a65726f00000000604482015290519081900360640190fd5b60008313620002a157604080517f08c379a000000000000000000000000000000000000000000000000000000000815260206004820152602660248201527f7469636b6574207072696365206d75737420626520677265617465722074686160448201527f6e207a65726f0000000000000000000000000000000000000000000000000000606482015290519081900360840190fd5b60008212156200031257604080517f08c379a000000000000000000000000000000000000000000000000000000000815260206004820152601b60248201527f666565206d757374206265207a65726f206f7220677265617465720000000000604482015290519081900360640190fd5b670de0b6b3a76400008213156200038a57604080517f08c379a000000000000000000000000000000000000000000000000000000000815260206004820181905260248201527f666565206672616374696f6e206d757374206265206c657373207468616e2031604482015290519081900360640190fd5b604080517fd6c1528b0000000000000000000000000000000000000000000000000000000081526004810184905260126024820152905173__FixidityLib___________________________9163d6c1528b916044808301926020929190829003018186803b158015620003fd57600080fd5b505af415801562000412573d6000803e3d6000fd5b505050506040513d60208110156200042957600080fd5b5051607255604080517fbd5cbd6200000000000000000000000000000000000000000000000000000000815260048101859052905173__FixidityLib___________________________9163bd5cbd62916024808301926020929190829003018186803b1580156200049a57600080fd5b505af4158015620004af573d6000803e3d6000fd5b505050506040513d6020811015620004c657600080fd5b5051607155604080517f9075789e00000000000000000000000000000000000000000000000000000000815260746004828101919091527f506f6f6c506f6f6c00000000000000000000000000000000000000000000000060248301526044820152905173__SortitionSumTreeFactory_______________91639075789e916064808301926000929190829003018186803b1580156200056657600080fd5b505af41580156200057b573d6000803e3d6000fd5b5050606b805460ff191690555050606f8054600160a060020a03988916600160a060020a031991821617909155607080549790981696169590951790955550606791909155606855607380549115156101000261ff00199092169190911790555061294480620005ec6000396000f3fe6080604052600436106101455763ffffffff60e060020a60003504166301670ba9811461014a5780630cbb0f8314610176578063111c17601461019d5780631d1065d5146101c65780633ccfd60b146101db5780634fd43b3f146101f05780635a9b0b891461021a57806362afd4b0146102a057806369e15404146102b557806370a08231146102ca578063715018a6146102fd5780637db6a4e41461031257806383ccfb8414610375578063862f25471461039f5780638da5cb5b146103b45780638f32d59b146103e55780639cd42401146103fa578063a69df4b51461040f578063c19d93fb14610424578063c4d66de81461045d578063d1472d3114610490578063d6d75f51146104a5578063e4db53e9146104ba578063ea3a1499146104e4578063ed7a4e0b14610517578063f2fde38b1461052c578063fc0c546a1461055f575b600080fd5b34801561015657600080fd5b506101746004803603602081101561016d57600080fd5b5035610574565b005b34801561018257600080fd5b5061018b61095e565b60408051918252519081900360200190f35b3480156101a957600080fd5b506101b2610964565b604080519115158252519081900360200190f35b3480156101d257600080fd5b5061018b610972565b3480156101e757600080fd5b506101746109ec565b3480156101fc57600080fd5b506101746004803603602081101561021357600080fd5b5035610c42565b34801561022657600080fd5b5061022f6113b6565b604051808c81526020018b81526020018a815260200189600381111561025157fe5b60ff168152600160a060020a039098166020890152506040808801969096526060870194909452608086019290925260a085015260c084015260e0830152519081900361010001945092505050f35b3480156102ac57600080fd5b5061018b611708565b3480156102c157600080fd5b5061018b61171a565b3480156102d657600080fd5b5061018b600480360360208110156102ed57600080fd5b5035600160a060020a0316611789565b34801561030957600080fd5b506101746117bd565b34801561031e57600080fd5b506103456004803603602081101561033557600080fd5b5035600160a060020a0316611808565b60408051600160a060020a0390951685526020850193909352838301919091526060830152519081900360800190f35b34801561038157600080fd5b506101746004803603602081101561039857600080fd5b50356118cd565b3480156103ab57600080fd5b5061018b611b1c565b3480156103c057600080fd5b506103c9611b40565b60408051600160a060020a039092168252519081900360200190f35b3480156103f157600080fd5b506101b2611b4f565b34801561040657600080fd5b5061018b611b60565b34801561041b57600080fd5b50610174611d00565b34801561043057600080fd5b5061043961200a565b6040518082600381111561044957fe5b60ff16815260200191505060405180910390f35b34801561046957600080fd5b506101746004803603602081101561048057600080fd5b5035600160a060020a0316612013565b34801561049c57600080fd5b5061018b612123565b3480156104b157600080fd5b506103c96121c6565b3480156104c657600080fd5b5061018b600480360360208110156104dd57600080fd5b50356121d5565b3480156104f057600080fd5b5061018b6004803603602081101561050757600080fd5b5035600160a060020a0316612466565b34801561052357600080fd5b506103c96125ee565b34801561053857600080fd5b506101746004803603602081101561054f57600080fd5b5035600160a060020a03166126ad565b34801561056b57600080fd5b506103c96126cc565b6000606b5460ff16600381111561058757fe5b146105d3576040805160e560020a62461bcd0281526020600482015260116024820152607960020a7039ba30ba329034b9903737ba1037b832b702604482015290519081900360640190fd5b6105db611b4f565b15156105e657600080fd5b607354610100900460ff16156105ff5743606755610679565b606754431015610679576040805160e560020a62461bcd02815260206004820152603460248201527f706f6f6c2063616e206f6e6c79206265206c6f636b6564206f6e206f722061666044820152606060020a73746572206c6f636b20737461727420626c6f636b02606482015290519081900360840190fd5b8015156106d0576040805160e560020a62461bcd02815260206004820152601b60248201527f7365637265742068617368206d75737420626520646566696e65640000000000604482015290519081900360640190fd5b6069819055606b805460ff191660011790556066546000121561093257600073__FixidityLib___________________________630e9989936066546040518263ffffffff1660e060020a0281526004018082815260200191505060206040518083038186803b15801561074357600080fd5b505af4158015610757573d6000803e3d6000fd5b505050506040513d602081101561076d57600080fd5b5051607054606f546040805160e060020a63095ea7b3028152600160a060020a03928316600482015260248101859052905193945091169163095ea7b3916044808201926020929091908290030181600087803b1580156107cd57600080fd5b505af11580156107e1573d6000803e3d6000fd5b505050506040513d60208110156107f757600080fd5b5051151561085e576040805160e560020a62461bcd028152602060048201526024808201527f636f756c64206e6f7420617070726f7665206d6f6e6579206d61726b65742073604482015260e260020a631c195b9902606482015290519081900360840190fd5b606f546040805160e360020a63140e25ad028152600481018490529051600160a060020a039092169163a0712d68916024808201926020929091908290030181600087803b1580156108af57600080fd5b505af11580156108c3573d6000803e3d6000fd5b505050506040513d60208110156108d957600080fd5b505115610930576040805160e560020a62461bcd02815260206004820152601d60248201527f636f756c64206e6f7420737570706c79206d6f6e6579206d61726b6574000000604482015290519081900360640190fd5b505b6040517f2e136745550967f28b779ce8c395ca060a2f844edfb5b06631fe677f66f9e30590600090a150565b606e5481565b607354610100900460ff1681565b606f546040805160e460020a630ae9d70b0281529051600092600160a060020a03169163ae9d70b0916004808301926020929190829003018186803b1580156109ba57600080fd5b505afa1580156109ce573d6000803e3d6000fd5b505050506040513d60208110156109e457600080fd5b505190505b90565b6109f5336126db565b1515610a3f576040805160e560020a62461bcd02815260206004820152600e6024820152609060020a6d656e7472616e742065786973747302604482015290519081900360640190fd5b6002606b5460ff166003811115610a5257fe5b1480610a6e57506003606b5460ff166003811115610a6c57fe5b145b1515610ac4576040805160e560020a62461bcd02815260206004820152601a60248201527f706f6f6c20686173206e6f74206265656e20756e6c6f636b6564000000000000604482015290519081900360640190fd5b336000818152606d6020526040812091610add90611789565b905060008113610b37576040805160e560020a62461bcd02815260206004820152601d60248201527f656e7472616e742068617320616c72656164792077697468647261776e000000604482015290519081900360640190fd5b6003820180548201905560408051828152905133917f6feafc3039dc558ee6f547c450318c2e74b8844cacf0f75c0f33df7360ba7b6e919081900360200190a26070546040805160e060020a63a9059cbb028152336004820152602481018490529051600160a060020a039092169163a9059cbb916044808201926020929091908290030181600087803b158015610bce57600080fd5b505af1158015610be2573d6000803e3d6000fd5b505050506040513d6020811015610bf857600080fd5b50511515610c3e576040805160e560020a62461bcd02815260206004820152601b60248201526000805160206128f9833981519152604482015290519081900360640190fd5b5050565b6000606b5460ff166003811115610c5557fe5b14610ca1576040805160e560020a62461bcd0281526020600482015260116024820152607960020a7039ba30ba329034b9903737ba1037b832b702604482015290519081900360640190fd5b60008113610d14576040805160e560020a62461bcd02815260206004820152602f60248201527f6e756d626572206f66207469636b657473206973206c657373207468616e206f6044820152608860020a6e7220657175616c20746f207a65726f02606482015290519081900360840190fd5b600073__FixidityLib___________________________63bd5cbd62836040518263ffffffff1660e060020a0281526004018082815260200191505060206040518083038186803b158015610d6857600080fd5b505af4158015610d7c573d6000803e3d6000fd5b505050506040513d6020811015610d9257600080fd5b50516071546040805160e360020a63078861150281526004810192909252602482018390525191925060009173__FixidityLib___________________________91633c4308a8916044808301926020929190829003018186803b158015610df957600080fd5b505af4158015610e0d573d6000803e3d6000fd5b505050506040513d6020811015610e2357600080fd5b50516040805160e060020a630e99899302815260048101839052905191925060009173__FixidityLib___________________________91630e998993916024808301926020929190829003018186803b158015610e8057600080fd5b505af4158015610e94573d6000803e3d6000fd5b505050506040513d6020811015610eaa57600080fd5b50516070546040805160e060020a6323b872dd028152336004820152306024820152604481018490529051929350600160a060020a03909116916323b872dd916064808201926020929091908290030181600087803b158015610f0c57600080fd5b505af1158015610f20573d6000803e3d6000fd5b505050506040513d6020811015610f3657600080fd5b50511515610f89576040805160e560020a62461bcd0281526020600482015260156024820152605a60020a741d1bdad95b881d1c985b9cd9995c8819985a5b195902604482015290519081900360640190fd5b610f92336126db565b1561107557336000908152606d602090815260409182902060010154825160e060020a63a5f3c23b028152600481019190915260248101859052915173__FixidityLib___________________________9263a5f3c23b926044808301939192829003018186803b15801561100657600080fd5b505af415801561101a573d6000803e3d6000fd5b505050506040513d602081101561103057600080fd5b5051336000908152606d6020526040902060018101919091556002015461105d908563ffffffff6126fc16565b336000908152606d60205260409020600201556110ea565b60408051608081018252338082526020808301868152838501898152600060608601818152948152606d9093529490912092518354600160a060020a031916600160a060020a03909116178355516001808401919091559251600283015551600390910155606e546110e6916126fc565b606e555b336000908152606d6020908152604080832060010154815160e060020a630e9989930281526004810191909152905173__FixidityLib___________________________92630e9989939260248082019391829003018186803b15801561115057600080fd5b505af4158015611164573d6000803e3d6000fd5b505050506040513d602081101561117a57600080fd5b50516040805160e160020a631712e1c50281526074600482015260c260020a67141bdbdb141bdbdb02602482015260448101839052336064820152905191925073__SortitionSumTreeFactory_______________91632e25c38a91608480820192600092909190829003018186803b1580156111f657600080fd5b505af415801561120a573d6000803e3d6000fd5b5050505073__FixidityLib___________________________63a5f3c23b606654856040518363ffffffff1660e060020a028152600401808381526020018281526020019250505060206040518083038186803b15801561126a57600080fd5b505af415801561127e573d6000803e3d6000fd5b505050506040513d602081101561129457600080fd5b50516066556040805160e160020a633de0a075028152905161131d9173__FixidityLib___________________________91637bc140ea91600480820192602092909190829003018186803b1580156112ec57600080fd5b505af4158015611300573d6000803e3d6000fd5b505050506040513d602081101561131657600080fd5b50516121d5565b6066541315611375576040805160e560020a62461bcd0281526020600482015260196024820152603860020a78706f6f6c2073697a652065786365656473206d6178696d756d02604482015290519081900360640190fd5b6040805186815260208101849052815133927fbae340cbbad65e770c316b0667f457021a64c3d9bd20aa1361bf0f9ca3ef459e928290030190a25050505050565b600080808080808080808080806003606b5460ff1660038111156113d657fe5b14156113e7576113e46125ee565b90505b73__FixidityLib___________________________630e9989936066546040518263ffffffff1660e060020a0281526004018082815260200191505060206040518083038186803b15801561143b57600080fd5b505af415801561144f573d6000803e3d6000fd5b505050506040513d602081101561146557600080fd5b5051606754606854606b54606c546040805160e060020a630e99899302815260048101929092525160ff90921691869173__FixidityLib___________________________91630e99899391602480820192602092909190829003018186803b1580156114d157600080fd5b505af41580156114e5573d6000803e3d6000fd5b505050506040513d60208110156114fb57600080fd5b50516071546040805160e060020a630e99899302815260048101929092525173__FixidityLib___________________________91630e998993916024808301926020929190829003018186803b15801561155557600080fd5b505af4158015611569573d6000803e3d6000fd5b505050506040513d602081101561157f57600080fd5b5051606e546040805160e160020a633de0a075028152905173__FixidityLib___________________________91630e998993916115df918491637bc140ea91600480820192602092909190829003018186803b1580156112ec57600080fd5b6040518263ffffffff1660e060020a0281526004018082815260200191505060206040518083038186803b15801561161657600080fd5b505af415801561162a573d6000803e3d6000fd5b505050506040513d602081101561164057600080fd5b505173__FixidityLib___________________________63393ca446611664611b60565b6040805160e060020a63ffffffff8516028152600481019290925260126024830152516044808301926020929190829003018186803b1580156116a657600080fd5b505af41580156116ba573d6000803e3d6000fd5b505050506040513d60208110156116d057600080fd5b81019080805190602001909291905050506069549b509b509b509b509b509b509b509b509b509b509b5050909192939495969798999a565b60c260020a67141bdbdb141bdbdb0281565b600073__FixidityLib___________________________630e99899361173e612715565b6040518263ffffffff1660e060020a0281526004018082815260200191505060206040518083038186803b15801561177557600080fd5b505af41580156109ce573d6000803e3d6000fd5b600160a060020a0381166000908152606d60205260408120816117ab84612466565b6003909201549091039150505b919050565b6117c5611b4f565b15156117d057600080fd5b603354604051600091600160a060020a0316906000805160206128d9833981519152908390a360338054600160a060020a0319169055565b600160a060020a038082166000908152606d6020908152604080832080546001820154835160e060020a630e998993028152600481019190915292519495869586958695939092169273__FixidityLib___________________________92630e99899392602480840193829003018186803b15801561188757600080fd5b505af415801561189b573d6000803e3d6000fd5b505050506040513d60208110156118b157600080fd5b5051600283015460039093015491989097509195509350915050565b6118d5611b4f565b15156118e057600080fd5b6001606b5460ff1660038111156118f357fe5b141561190157611901611d00565b6002606b5460ff16600381111561191457fe5b14611965576040805160e560020a62461bcd0281526020600482015260166024820152605260020a751cdd185d19481b5d5cdd081899481d5b9b1bd8dad95902604482015290519081900360640190fd5b6069546040805160208082018590528251808303820181529183019092528051910120146119d8576040805160e560020a62461bcd0281526020600482015260156024820152605b60020a740e6cac6e4cae840c8decae640dcdee840dac2e8c6d02604482015290519081900360640190fd5b606a819055606b805460ff1916600317905560006119f461171a565b90506000811115611adb57607054600160a060020a031663a9059cbb611a18611b40565b836040518363ffffffff1660e060020a0281526004018083600160a060020a0316600160a060020a0316815260200182815260200192505050602060405180830381600087803b158015611a6b57600080fd5b505af1158015611a7f573d6000803e3d6000fd5b505050506040513d6020811015611a9557600080fd5b50511515611adb576040805160e560020a62461bcd02815260206004820152601b60248201526000805160206128f9833981519152604482015290519081900360640190fd5b611ae36125ee565b600160a060020a03167fb98509dde65aa654acedd81f9f27d9ad527e073af1e5632191e0594bfe44b27260405160405180910390a25050565b600073__FixidityLib___________________________630e99899361173e61277a565b603354600160a060020a031690565b603354600160a060020a0316331490565b60675460685460009190038173__FixidityLib___________________________63d6c1528b611b8e610972565b6040805160e060020a63ffffffff8516028152600481019290925260126024830152516044808301926020929190829003018186803b158015611bd057600080fd5b505af4158015611be4573d6000803e3d6000fd5b505050506040513d6020811015611bfa57600080fd5b50516040805160e160020a635eae5eb102815260048101859052905191925073__FixidityLib___________________________91633c4308a8918491849163bd5cbd62916024808301926020929190829003018186803b158015611c5e57600080fd5b505af4158015611c72573d6000803e3d6000fd5b505050506040513d6020811015611c8857600080fd5b50516040805160e060020a63ffffffff861602815260048101939093526024830191909152516044808301926020929190829003018186803b158015611ccd57600080fd5b505af4158015611ce1573d6000803e3d6000fd5b505050506040513d6020811015611cf757600080fd5b50519250505090565b6001606b5460ff166003811115611d1357fe5b14611d61576040805160e560020a62461bcd0281526020600482015260136024820152606a60020a721cdd185d19481a5cc81b9bdd081b1bd8dad95902604482015290519081900360640190fd5b607354610100900460ff168015611d905750611d7b611b40565b600160a060020a031633600160a060020a0316145b15611d9e5743606855611df7565b6068544311611df7576040805160e560020a62461bcd02815260206004820152601b60248201527f706f6f6c2063616e6e6f7420626520756e6c6f636b6564207965740000000000604482015290519081900360640190fd5b606f546040805160e060020a633af9e6690281523060048201529051600092600160a060020a031691633af9e66991602480830192602092919082900301818787803b158015611e4657600080fd5b505af1158015611e5a573d6000803e3d6000fd5b505050506040513d6020811015611e7057600080fd5b505190506000811115611fd157606f546040805160e060020a63852a12e3028152600481018490529051600160a060020a039092169163852a12e3916024808201926020929091908290030181600087803b158015611ece57600080fd5b505af1158015611ee2573d6000803e3d6000fd5b505050506040513d6020811015611ef857600080fd5b505115611f4f576040805160e560020a62461bcd02815260206004820152601e60248201527f636f756c64206e6f742072656465656d2066726f6d20636f6d706f756e640000604482015290519081900360640190fd5b73__FixidityLib___________________________63bd5cbd62826040518263ffffffff1660e060020a0281526004018082815260200191505060206040518083038186803b158015611fa157600080fd5b505af4158015611fb5573d6000803e3d6000fd5b505050506040513d6020811015611fcb57600080fd5b5051606c555b606b805460ff191660021790556040517fde17ec5ba6f9b5379a238e2a199366faccaedccf87879284014517333da74e2690600090a150565b606b5460ff1681565b600054610100900460ff168061202c575061202c612792565b8061203a575060005460ff16155b15156120aa576040805160e560020a62461bcd02815260206004820152602e60248201527f436f6e747261637420696e7374616e63652068617320616c72656164792062656044820152609260020a6d195b881a5b9a5d1a585b1a5e995902606482015290519081900360840190fd5b60008054600161010061ff00198316811760ff191691909117835560338054600160a060020a031916600160a060020a0386811691909117918290556040519290930460ff1693921691906000805160206128d9833981519152908290a3600080549115156101000261ff001990921691909117905550565b6068546000904311612137575060006109e9565b6121bf73__FixidityLib___________________________630e9989936066546040518263ffffffff1660e060020a0281526004018082815260200191505060206040518083038186803b15801561218e57600080fd5b505af41580156121a2573d6000803e3d6000fd5b505050506040513d60208110156121b857600080fd5b5051612798565b90506109e9565b606f54600160a060020a031681565b60008073__FixidityLib___________________________633c4308a86121fa611b60565b73__FixidityLib___________________________63bd5cbd6260026040518263ffffffff1660e060020a0281526004018082815260200191505060206040518083038186803b15801561224d57600080fd5b505af4158015612261573d6000803e3d6000fd5b505050506040513d602081101561227757600080fd5b50516040805160e060020a63ffffffff861602815260048101939093526024830191909152516044808301926020929190829003018186803b1580156122bc57600080fd5b505af41580156122d0573d6000803e3d6000fd5b505050506040513d60208110156122e657600080fd5b50516040805160e160020a635eae5eb102815260016004820152905191925073__FixidityLib___________________________9163f5984236918691849163a5f3c23b918791849163bd5cbd6291602480820192602092909190829003018186803b15801561235557600080fd5b505af4158015612369573d6000803e3d6000fd5b505050506040513d602081101561237f57600080fd5b50516040805160e060020a63ffffffff861602815260048101939093526024830191909152516044808301926020929190829003018186803b1580156123c457600080fd5b505af41580156123d8573d6000803e3d6000fd5b505050506040513d60208110156123ee57600080fd5b50516040805160e060020a63ffffffff861602815260048101939093526024830191909152516044808301926020929190829003018186803b15801561243357600080fd5b505af4158015612447573d6000803e3d6000fd5b505050506040513d602081101561245d57600080fd5b50519392505050565b600160a060020a038082166000908152606d602052604081208054919290911615156124965760009150506117b8565b60018101546003606b5460ff1660038111156124ae57fe5b1480156124d357506124be6125ee565b600160a060020a031684600160a060020a0316145b156125685773__FixidityLib___________________________63a5f3c23b826124fb61277a565b6040518363ffffffff1660e060020a028152600401808381526020018281526020019250505060206040518083038186803b15801561253957600080fd5b505af415801561254d573d6000803e3d6000fd5b505050506040513d602081101561256357600080fd5b505190505b73__FixidityLib___________________________630e998993826040518263ffffffff1660e060020a0281526004018082815260200191505060206040518083038186803b1580156125ba57600080fd5b505af41580156125ce573d6000803e3d6000fd5b505050506040513d60208110156125e457600080fd5b5051949350505050565b60008060665413156126a55773__SortitionSumTreeFactory_______________6388c1d467607460c260020a67141bdbdb141bdbdb0261262d612123565b6040518463ffffffff1660e060020a02815260040180848152602001838152602001828152602001935050505060206040518083038186803b15801561267257600080fd5b505af4158015612686573d6000803e3d6000fd5b505050506040513d602081101561269c57600080fd5b505190506109e9565b5060006109e9565b6126b5611b4f565b15156126c057600080fd5b6126c9816127b1565b50565b607054600160a060020a031681565b600160a060020a039081166000818152606d60205260409020549091161490565b60008282018381101561270e57600080fd5b9392505050565b600073__FixidityLib___________________________633c4308a8612739612810565b6072546040518363ffffffff1660e060020a028152600401808381526020018281526020019250505060206040518083038186803b15801561177557600080fd5b6000612784612715565b61278c612810565b03905090565b303b1590565b60006127ab6127a5612870565b8361287b565b92915050565b600160a060020a03811615156127c657600080fd5b603354604051600160a060020a038084169216906000805160206128d983398151915290600090a360338054600160a060020a031916600160a060020a0392909216919091179055565b600073__FixidityLib___________________________63b93ea812606c546066546040518363ffffffff1660e060020a028152600401808381526020018281526020019250505060206040518083038186803b15801561177557600080fd5b606a54606854401890565b600080828360000381151561288c57fe5b069050835b81811061289d576128c3565b604080516020808201939093528151808203840181529082019091528051910120612891565b83818115156128ce57fe5b069594505050505056fe8be0079c531659141344cd1fd0a4f28419497f9722a3daafe3b4186f6b6457e0636f756c64206e6f74207472616e736665722077696e6e696e67730000000000a165627a7a72305820e16ef6d01e55fe0793c874d3a832961649754aeffb46218fdbe630a5c67fbb600029",
  "source": "pragma solidity 0.5.0;\n\nimport \"openzeppelin-eth/contracts/token/ERC20/IERC20.sol\";\nimport \"openzeppelin-eth/contracts/math/SafeMath.sol\";\nimport \"./compound/ICErc20.sol\";\nimport \"openzeppelin-eth/contracts/ownership/Ownable.sol\";\nimport \"kleros/contracts/data-structures/SortitionSumTreeFactory.sol\";\nimport \"./UniformRandomNumber.sol\";\nimport \"fixidity/contracts/FixidityLib.sol\";\n\n/**\n * @title The Pool contract for PoolTogether\n * @author Brendan Asselstine\n * @notice This contract implements a \"lossless pool\".  The pool exists in three states: open, locked, and complete.\n * The pool begins in the open state during which users can buy any number of tickets.  The more tickets they purchase, the greater their chances of winning.\n * After the lockStartBlock the owner may lock the pool.  The pool transfers the pool of ticket money into the Compound Finance money market and no more tickets are sold.\n * After the lockEndBlock the owner may unlock the pool.  The pool will withdraw the ticket money from the money market, plus earned interest, back into the contract.  The fee will be sent to\n * the owner, and users will be able to withdraw their ticket money and winnings, if any.\n * @dev All monetary values are stored internally as fixed point 24.\n */\ncontract Pool is Ownable {\n  using SafeMath for uint256;\n\n  /**\n   * Emitted when \"tickets\" have been purchased.\n   * @param sender The purchaser of the tickets\n   * @param count The number of tickets purchased\n   * @param totalPrice The total cost of the tickets\n   */\n  event BoughtTickets(address indexed sender, int256 count, uint256 totalPrice);\n\n  /**\n   * Emitted when a user withdraws from the pool.\n   * @param sender The user that is withdrawing from the pool\n   * @param amount The amount that the user withdrew\n   */\n  event Withdrawn(address indexed sender, int256 amount);\n\n  /**\n   * Emitted when the pool is locked.\n   */\n  event PoolLocked();\n\n  /**\n   * Emitted when the pool is unlocked.\n   */\n  event PoolUnlocked();\n\n  /**\n   * Emitted when the pool is complete\n   */\n  event PoolComplete(address indexed winner);\n\n  enum State {\n    OPEN,\n    LOCKED,\n    UNLOCKED,\n    COMPLETE\n  }\n\n  struct Entry {\n    address addr;\n    int256 amount;\n    uint256 ticketCount;\n    int256 withdrawnNonFixed;\n  }\n\n  bytes32 public constant SUM_TREE_KEY = \"PoolPool\";\n\n  int256 private totalAmount; // fixed point 24\n  uint256 private lockStartBlock;\n  uint256 private lockEndBlock;\n  bytes32 private secretHash;\n  bytes32 private secret;\n  State public state;\n  int256 private finalAmount; //fixed point 24\n  mapping (address => Entry) private entries;\n  uint256 public entryCount;\n  ICErc20 public moneyMarket;\n  IERC20 public token;\n  int256 private ticketPrice; //fixed point 24\n  int256 private feeFraction; //fixed point 24\n  bool private ownerHasWithdrawn;\n  bool public allowLockAnytime;\n\n  using SortitionSumTreeFactory for SortitionSumTreeFactory.SortitionSumTrees;\n  SortitionSumTreeFactory.SortitionSumTrees internal sortitionSumTrees;\n\n  /**\n   * @notice Creates a new Pool.\n   * @param _moneyMarket The Compound money market to supply tokens to.\n   * @param _token The ERC20 token to be used.\n   * @param _lockStartBlock The block number on or after which the deposit can be made to Compound\n   * @param _lockEndBlock The block number on or after which the Compound supply can be withdrawn\n   * @param _ticketPrice The price of each ticket (fixed point 18)\n   * @param _feeFractionFixedPoint18 The fraction of the winnings going to the owner (fixed point 18)\n   */\n  constructor (\n    ICErc20 _moneyMarket,\n    IERC20 _token,\n    uint256 _lockStartBlock,\n    uint256 _lockEndBlock,\n    int256 _ticketPrice,\n    int256 _feeFractionFixedPoint18,\n    bool _allowLockAnytime\n  ) public {\n    require(_lockEndBlock > _lockStartBlock, \"lock end block is not after start block\");\n    require(address(_moneyMarket) != address(0), \"money market address cannot be zero\");\n    require(address(_token) != address(0), \"token address cannot be zero\");\n    require(_ticketPrice > 0, \"ticket price must be greater than zero\");\n    require(_feeFractionFixedPoint18 >= 0, \"fee must be zero or greater\");\n    require(_feeFractionFixedPoint18 <= 1000000000000000000, \"fee fraction must be less than 1\");\n    feeFraction = FixidityLib.newFixed(_feeFractionFixedPoint18, uint8(18));\n    ticketPrice = FixidityLib.newFixed(_ticketPrice);\n    sortitionSumTrees.createTree(SUM_TREE_KEY, 4);\n\n    state = State.OPEN;\n    moneyMarket = _moneyMarket;\n    token = _token;\n    lockStartBlock = _lockStartBlock;\n    lockEndBlock = _lockEndBlock;\n    allowLockAnytime = _allowLockAnytime;\n  }\n\n  /**\n   * @notice Buys a pool ticket.  Only possible while the Pool is in the \"open\" state.  The\n   * user can buy any number of tickets.  Each ticket is a chance at winning.\n   * @param _countNonFixed The number of tickets the user wishes to buy.\n   */\n  function buyTickets (int256 _countNonFixed) public requireOpen {\n    require(_countNonFixed > 0, \"number of tickets is less than or equal to zero\");\n    int256 count = FixidityLib.newFixed(_countNonFixed);\n    int256 totalDeposit = FixidityLib.multiply(ticketPrice, count);\n    uint256 totalDepositNonFixed = uint256(FixidityLib.fromFixed(totalDeposit));\n    require(token.transferFrom(msg.sender, address(this), totalDepositNonFixed), \"token transfer failed\");\n\n    if (_hasEntry(msg.sender)) {\n      entries[msg.sender].amount = FixidityLib.add(entries[msg.sender].amount, totalDeposit);\n      entries[msg.sender].ticketCount = entries[msg.sender].ticketCount.add(uint256(_countNonFixed));\n    } else {\n      entries[msg.sender] = Entry(\n        msg.sender,\n        totalDeposit,\n        uint256(_countNonFixed),\n        0\n      );\n      entryCount = entryCount.add(1);\n    }\n\n    int256 amountNonFixed = FixidityLib.fromFixed(entries[msg.sender].amount);\n    sortitionSumTrees.set(SUM_TREE_KEY, uint256(amountNonFixed), bytes32(uint256(msg.sender)));\n\n    totalAmount = FixidityLib.add(totalAmount, totalDeposit);\n\n    // the total amount cannot exceed the max pool size\n    require(totalAmount <= maxPoolSizeFixedPoint24(FixidityLib.maxFixedDiv()), \"pool size exceeds maximum\");\n\n    emit BoughtTickets(msg.sender, _countNonFixed, totalDepositNonFixed);\n  }\n\n  /**\n   * @notice Pools the deposits and supplies them to Compound.\n   * Can only be called by the owner when the pool is open.\n   * Fires the PoolLocked event.\n   */\n  function lock(bytes32 _secretHash) external requireOpen onlyOwner {\n    if (allowLockAnytime) {\n      lockStartBlock = block.number;\n    } else {\n      require(block.number >= lockStartBlock, \"pool can only be locked on or after lock start block\");\n    }\n    require(_secretHash != 0, \"secret hash must be defined\");\n    secretHash = _secretHash;\n    state = State.LOCKED;\n\n    if (totalAmount > 0) {\n      uint256 totalAmountNonFixed = uint256(FixidityLib.fromFixed(totalAmount));\n      require(token.approve(address(moneyMarket), totalAmountNonFixed), \"could not approve money market spend\");\n      require(moneyMarket.mint(totalAmountNonFixed) == 0, \"could not supply money market\");\n    }\n\n    emit PoolLocked();\n  }\n\n  function unlock() public requireLocked {\n    if (allowLockAnytime && msg.sender == owner()) {\n      lockEndBlock = block.number;\n    } else {\n      require(lockEndBlock < block.number, \"pool cannot be unlocked yet\");\n    }\n\n    uint256 balance = moneyMarket.balanceOfUnderlying(address(this));\n\n    if (balance > 0) {\n      require(moneyMarket.redeemUnderlying(balance) == 0, \"could not redeem from compound\");\n      finalAmount = FixidityLib.newFixed(int256(balance));\n    }\n\n    state = State.UNLOCKED;\n\n    emit PoolUnlocked();\n  }\n\n  /**\n   * @notice Withdraws the deposit from Compound and selects a winner.\n   * Can only be called by the owner after the lock end block.\n   * Fires the PoolUnlocked event.\n   */\n  function complete(bytes32 _secret) public onlyOwner {\n    if (state == State.LOCKED) {\n      unlock();\n    }\n    require(state == State.UNLOCKED, \"state must be unlocked\");\n    require(keccak256(abi.encodePacked(_secret)) == secretHash, \"secret does not match\");\n    secret = _secret;\n    state = State.COMPLETE;\n\n    uint256 fee = feeAmount();\n    if (fee > 0) {\n      require(token.transfer(owner(), fee), \"could not transfer winnings\");\n    }\n\n    emit PoolComplete(winnerAddress());\n  }\n\n  /**\n   * @notice Transfers a users deposit, and potential winnings, back to them.\n   * The Pool must be unlocked.\n   * The user must have deposited funds.  Fires the Withdrawn event.\n   */\n  function withdraw() public {\n    require(_hasEntry(msg.sender), \"entrant exists\");\n    require(state == State.UNLOCKED || state == State.COMPLETE, \"pool has not been unlocked\");\n    Entry storage entry = entries[msg.sender];\n    int256 remainingBalanceNonFixed = balanceOf(msg.sender);\n    require(remainingBalanceNonFixed > 0, \"entrant has already withdrawn\");\n    entry.withdrawnNonFixed = entry.withdrawnNonFixed + remainingBalanceNonFixed;\n\n    emit Withdrawn(msg.sender, remainingBalanceNonFixed);\n\n    require(token.transfer(msg.sender, uint256(remainingBalanceNonFixed)), \"could not transfer winnings\");\n  }\n\n  /**\n   * @notice Calculates a user's winnings.  This is their deposit plus their winnings, if any.\n   * @param _addr The address of the user\n   */\n  function winnings(address _addr) public view returns (int256) {\n    Entry storage entry = entries[_addr];\n    if (entry.addr == address(0)) { //if does not have an entry\n      return 0;\n    }\n    int256 winningTotal = entry.amount;\n    if (state == State.COMPLETE && _addr == winnerAddress()) {\n      winningTotal = FixidityLib.add(winningTotal, netWinningsFixedPoint24());\n    }\n    return FixidityLib.fromFixed(winningTotal);\n  }\n\n  /**\n   * @notice Calculates a user's remaining balance.  This is their winnings less how much they've withdrawn.\n   * @return The users's current balance.\n   */\n  function balanceOf(address _addr) public view returns (int256) {\n    Entry storage entry = entries[_addr];\n    int256 winningTotalNonFixed = winnings(_addr);\n    return winningTotalNonFixed - entry.withdrawnNonFixed;\n  }\n\n  /**\n   * @notice Selects and returns the winner's address\n   * @return The winner's address\n   */\n  function winnerAddress() public view returns (address) {\n    if (totalAmount > 0) {\n      return address(uint256(sortitionSumTrees.draw(SUM_TREE_KEY, randomToken())));\n    } else {\n      return address(0);\n    }\n  }\n\n  /**\n   * @notice Returns the total interest on the pool less the fee as a whole number\n   * @return The total interest on the pool less the fee as a whole number\n   */\n  function netWinnings() public view returns (int256) {\n    return FixidityLib.fromFixed(netWinningsFixedPoint24());\n  }\n\n  /**\n   * @notice Computes the total interest earned on the pool less the fee as a fixed point 24.\n   * @return The total interest earned on the pool less the fee as a fixed point 24.\n   */\n  function netWinningsFixedPoint24() internal view returns (int256) {\n    return grossWinningsFixedPoint24() - feeAmountFixedPoint24();\n  }\n\n  /**\n   * @notice Computes the total interest earned on the pool as a fixed point 24.\n   * This is what the winner will earn once the pool is unlocked.\n   * @return The total interest earned on the pool as a fixed point 24.\n   */\n  function grossWinningsFixedPoint24() internal view returns (int256) {\n    return FixidityLib.subtract(finalAmount, totalAmount);\n  }\n\n  /**\n   * @notice Calculates the size of the fee based on the gross winnings\n   * @return The fee for the pool to be transferred to the owner\n   */\n  function feeAmount() public view returns (uint256) {\n    return uint256(FixidityLib.fromFixed(feeAmountFixedPoint24()));\n  }\n\n  /**\n   * @notice Calculates the fee for the pool by multiplying the gross winnings by the fee fraction.\n   * @return The fee for the pool as a fixed point 24\n   */\n  function feeAmountFixedPoint24() internal view returns (int256) {\n    return FixidityLib.multiply(grossWinningsFixedPoint24(), feeFraction);\n  }\n\n  /**\n   * @notice Selects a random number in the range from [0, total tokens deposited)\n   * @return If the current block is before the end it returns 0, otherwise it returns the random number.\n   */\n  function randomToken() public view returns (uint256) {\n    if (block.number <= lockEndBlock) {\n      return 0;\n    } else {\n      return _selectRandom(uint256(FixidityLib.fromFixed(totalAmount)));\n    }\n  }\n\n  /**\n   * @notice Selects a random number in the range [0, total)\n   * @param total The upper bound for the random number\n   * @return The random number\n   */\n  function _selectRandom(uint256 total) internal view returns (uint256) {\n    return UniformRandomNumber.uniform(_entropy(), total);\n  }\n\n  /**\n   * @notice Computes the entropy used to generate the random number.\n   * The blockhash of the lock end block is XOR'd with the secret revealed by the owner.\n   * @return The computed entropy value\n   */\n  function _entropy() internal view returns (uint256) {\n    return uint256(blockhash(lockEndBlock) ^ secret);\n  }\n\n  /**\n   * @notice Retrieves information about the pool.\n   * @return A tuple containing:\n   *    entryTotal (the total of all deposits)\n   *    startBlock (the block after which the pool can be locked)\n   *    endBlock (the block after which the pool can be unlocked)\n   *    poolState (either OPEN, LOCKED, COMPLETE)\n   *    winner (the address of the winner)\n   *    supplyBalanceTotal (the total deposits plus any interest from Compound)\n   *    ticketCost (the cost of each ticket in DAI)\n   *    participantCount (the number of unique purchasers of tickets)\n   *    maxPoolSize (the maximum theoretical size of the pool to prevent overflow)\n   *    estimatedInterestFixedPoint18 (the estimated total interest percent for this pool)\n   *    hashOfSecret (the hash of the secret the owner submitted upon locking)\n   */\n  function getInfo() public view returns (\n    int256 entryTotal,\n    uint256 startBlock,\n    uint256 endBlock,\n    State poolState,\n    address winner,\n    int256 supplyBalanceTotal,\n    int256 ticketCost,\n    uint256 participantCount,\n    int256 maxPoolSize,\n    int256 estimatedInterestFixedPoint18,\n    bytes32 hashOfSecret\n  ) {\n    address winAddr = address(0);\n    if (state == State.COMPLETE) {\n      winAddr = winnerAddress();\n    }\n    return (\n      FixidityLib.fromFixed(totalAmount),\n      lockStartBlock,\n      lockEndBlock,\n      state,\n      winAddr,\n      FixidityLib.fromFixed(finalAmount),\n      FixidityLib.fromFixed(ticketPrice),\n      entryCount,\n      FixidityLib.fromFixed(maxPoolSizeFixedPoint24(FixidityLib.maxFixedDiv())),\n      FixidityLib.fromFixed(currentInterestFractionFixedPoint24(), uint8(18)),\n      secretHash\n    );\n  }\n\n  /**\n   * @notice Retrieves information about a user's entry in the Pool.\n   * @return Returns a tuple containing:\n   *    addr (the address of the user)\n   *    amount (the amount they deposited)\n   *    ticketCount (the number of tickets they have bought)\n   *    withdrawn (the amount they have withdrawn)\n   */\n  function getEntry(address _addr) public view returns (\n    address addr,\n    int256 amount,\n    uint256 ticketCount,\n    int256 withdrawn\n  ) {\n    Entry storage entry = entries[_addr];\n    return (\n      entry.addr,\n      FixidityLib.fromFixed(entry.amount),\n      entry.ticketCount,\n      entry.withdrawnNonFixed\n    );\n  }\n\n  /**\n   * @notice Calculates the maximum pool size so that it doesn't overflow after earning interest\n   * @dev poolSize = totalDeposits + totalDeposits * interest => totalDeposits = poolSize / (1 + interest)\n   * @return The maximum size of the pool to be deposited into the money market\n   */\n  function maxPoolSizeFixedPoint24(int256 _maxValueFixedPoint24) public view returns (int256) {\n    /// Double the interest rate in case it increases over the lock period.  Somewhat arbitrarily.\n    int256 interestFraction = FixidityLib.multiply(currentInterestFractionFixedPoint24(), FixidityLib.newFixed(2));\n    return FixidityLib.divide(_maxValueFixedPoint24, FixidityLib.add(interestFraction, FixidityLib.newFixed(1)));\n  }\n\n  /**\n   * @notice Estimates the current effective interest rate using the money market's current supplyRateMantissa and the lock duration in blocks.\n   * @return The current estimated effective interest rate\n   */\n  function currentInterestFractionFixedPoint24() public view returns (int256) {\n    int256 blockDuration = int256(lockEndBlock - lockStartBlock);\n    int256 supplyRateMantissaFixedPoint24 = FixidityLib.newFixed(int256(supplyRateMantissa()), uint8(18));\n    return FixidityLib.multiply(supplyRateMantissaFixedPoint24, FixidityLib.newFixed(blockDuration));\n  }\n\n  /**\n   * @notice Extracts the supplyRateMantissa value from the money market contract\n   * @return The money market supply rate per block\n   */\n  function supplyRateMantissa() public view returns (uint256) {\n    return moneyMarket.supplyRatePerBlock();\n  }\n\n  /**\n   * @notice Determines whether a given address has bought tickets\n   * @param _addr The given address\n   * @return Returns true if the given address bought tickets, false otherwise.\n   */\n  function _hasEntry(address _addr) internal view returns (bool) {\n    return entries[_addr].addr == _addr;\n  }\n\n  modifier requireOpen() {\n    require(state == State.OPEN, \"state is not open\");\n    _;\n  }\n\n  modifier requireLocked() {\n    require(state == State.LOCKED, \"state is not locked\");\n    _;\n  }\n\n  modifier requireComplete() {\n    require(state == State.COMPLETE, \"pool is not complete\");\n    require(block.number > lockEndBlock, \"block is before lock end period\");\n    _;\n  }\n}\n",
  "sourcePath": "pooltogether-contracts/contracts/Pool.sol",
  "compiler": {
    "name": "solc",
    "version": "0.5.0+commit.1d4f565a.Emscripten.clang"
  },
  "schemaVersion": "3.0.2",
  "updatedAt": "2019-07-07T10:59:31.988Z",
  "devdoc": {
    "author": "Brendan Asselstine",
    "details": "All monetary values are stored internally as fixed point 24.",
    "methods": {
      "balanceOf(address)": {
        "return": "The users's current balance."
      },
      "buyTickets(int256)": {
        "params": {
          "_countNonFixed": "The number of tickets the user wishes to buy."
        }
      },
      "constructor": {
        "params": {
          "_feeFractionFixedPoint18": "The fraction of the winnings going to the owner (fixed point 18)",
          "_lockEndBlock": "The block number on or after which the Compound supply can be withdrawn",
          "_lockStartBlock": "The block number on or after which the deposit can be made to Compound",
          "_moneyMarket": "The Compound money market to supply tokens to.",
          "_ticketPrice": "The price of each ticket (fixed point 18)",
          "_token": "The ERC20 token to be used."
        }
      },
      "currentInterestFractionFixedPoint24()": {
        "return": "The current estimated effective interest rate"
      },
      "feeAmount()": {
        "return": "The fee for the pool to be transferred to the owner"
      },
      "getEntry(address)": {
        "return": "Returns a tuple containing:   addr (the address of the user)   amount (the amount they deposited)   ticketCount (the number of tickets they have bought)   withdrawn (the amount they have withdrawn)"
      },
      "getInfo()": {
        "return": "A tuple containing:   entryTotal (the total of all deposits)   startBlock (the block after which the pool can be locked)   endBlock (the block after which the pool can be unlocked)   poolState (either OPEN, LOCKED, COMPLETE)   winner (the address of the winner)   supplyBalanceTotal (the total deposits plus any interest from Compound)   ticketCost (the cost of each ticket in DAI)   participantCount (the number of unique purchasers of tickets)   maxPoolSize (the maximum theoretical size of the pool to prevent overflow)   estimatedInterestFixedPoint18 (the estimated total interest percent for this pool)   hashOfSecret (the hash of the secret the owner submitted upon locking)"
      },
      "initialize(address)": {
        "details": "The Ownable constructor sets the original `owner` of the contract to the sender account."
      },
      "isOwner()": {
        "return": "true if `msg.sender` is the owner of the contract."
      },
      "maxPoolSizeFixedPoint24(int256)": {
        "details": "poolSize = totalDeposits + totalDeposits * interest => totalDeposits = poolSize / (1 + interest)",
        "return": "The maximum size of the pool to be deposited into the money market"
      },
      "netWinnings()": {
        "return": "The total interest on the pool less the fee as a whole number"
      },
      "owner()": {
        "return": "the address of the owner."
      },
      "randomToken()": {
        "return": "If the current block is before the end it returns 0, otherwise it returns the random number."
      },
      "renounceOwnership()": {
        "details": "Allows the current owner to relinquish control of the contract."
      },
      "supplyRateMantissa()": {
        "return": "The money market supply rate per block"
      },
      "transferOwnership(address)": {
        "details": "Allows the current owner to transfer control of the contract to a newOwner.",
        "params": {
          "newOwner": "The address to transfer ownership to."
        }
      },
      "winnerAddress()": {
        "return": "The winner's address"
      },
      "winnings(address)": {
        "params": {
          "_addr": "The address of the user"
        }
      }
    },
    "title": "The Pool contract for PoolTogether"
  },
  "userdoc": {
    "methods": {
      "balanceOf(address)": {
        "notice": "Calculates a user's remaining balance.  This is their winnings less how much they've withdrawn."
      },
      "buyTickets(int256)": {
        "notice": "Buys a pool ticket.  Only possible while the Pool is in the \"open\" state.  The user can buy any number of tickets.  Each ticket is a chance at winning."
      },
      "complete(bytes32)": {
        "notice": "Withdraws the deposit from Compound and selects a winner. Can only be called by the owner after the lock end block. Fires the PoolUnlocked event."
      },
      "constructor": "Creates a new Pool.",
      "currentInterestFractionFixedPoint24()": {
        "notice": "Estimates the current effective interest rate using the money market's current supplyRateMantissa and the lock duration in blocks."
      },
      "feeAmount()": {
        "notice": "Calculates the size of the fee based on the gross winnings"
      },
      "getEntry(address)": {
        "notice": "Retrieves information about a user's entry in the Pool."
      },
      "getInfo()": {
        "notice": "Retrieves information about the pool."
      },
      "lock(bytes32)": {
        "notice": "Pools the deposits and supplies them to Compound. Can only be called by the owner when the pool is open. Fires the PoolLocked event."
      },
      "maxPoolSizeFixedPoint24(int256)": {
        "notice": "Calculates the maximum pool size so that it doesn't overflow after earning interest"
      },
      "netWinnings()": {
        "notice": "Returns the total interest on the pool less the fee as a whole number"
      },
      "randomToken()": {
        "notice": "Selects a random number in the range from [0, total tokens deposited)"
      },
      "renounceOwnership()": {
        "notice": "Renouncing to ownership will leave the contract without an owner. It will not be possible to call the functions with the `onlyOwner` modifier anymore."
      },
      "supplyRateMantissa()": {
        "notice": "Extracts the supplyRateMantissa value from the money market contract"
      },
      "winnerAddress()": {
        "notice": "Selects and returns the winner's address"
      },
      "winnings(address)": {
        "notice": "Calculates a user's winnings.  This is their deposit plus their winnings, if any."
      },
      "withdraw()": {
        "notice": "Transfers a users deposit, and potential winnings, back to them. The Pool must be unlocked. The user must have deposited funds.  Fires the Withdrawn event."
      }
    },
    "notice": "This contract implements a \"lossless pool\".  The pool exists in three states: open, locked, and complete. The pool begins in the open state during which users can buy any number of tickets.  The more tickets they purchase, the greater their chances of winning. After the lockStartBlock the owner may lock the pool.  The pool transfers the pool of ticket money into the Compound Finance money market and no more tickets are sold. After the lockEndBlock the owner may unlock the pool.  The pool will withdraw the ticket money from the money market, plus earned interest, back into the contract.  The fee will be sent to the owner, and users will be able to withdraw their ticket money and winnings, if any."
  }
}