{
  "contractName": "PoolManager",
  "abi": [
    {
      "constant": true,
      "inputs": [],
      "name": "lockDurationInBlocks",
      "outputs": [
        {
          "name": "",
          "type": "uint256"
        }
      ],
      "payable": false,
      "stateMutability": "view",
      "type": "function"
    },
    {
      "constant": true,
      "inputs": [],
      "name": "allowLockAnytime",
      "outputs": [
        {
          "name": "",
          "type": "bool"
        }
      ],
      "payable": false,
      "stateMutability": "view",
      "type": "function"
    },
    {
      "constant": true,
      "inputs": [],
      "name": "ticketPrice",
      "outputs": [
        {
          "name": "",
          "type": "int256"
        }
      ],
      "payable": false,
      "stateMutability": "view",
      "type": "function"
    },
    {
      "constant": true,
      "inputs": [],
      "name": "currentPool",
      "outputs": [
        {
          "name": "",
          "type": "address"
        }
      ],
      "payable": false,
      "stateMutability": "view",
      "type": "function"
    },
    {
      "constant": false,
      "inputs": [],
      "name": "renounceOwnership",
      "outputs": [],
      "payable": false,
      "stateMutability": "nonpayable",
      "type": "function"
    },
    {
      "constant": true,
      "inputs": [],
      "name": "owner",
      "outputs": [
        {
          "name": "",
          "type": "address"
        }
      ],
      "payable": false,
      "stateMutability": "view",
      "type": "function"
    },
    {
      "constant": true,
      "inputs": [],
      "name": "isOwner",
      "outputs": [
        {
          "name": "",
          "type": "bool"
        }
      ],
      "payable": false,
      "stateMutability": "view",
      "type": "function"
    },
    {
      "constant": true,
      "inputs": [],
      "name": "openDurationInBlocks",
      "outputs": [
        {
          "name": "",
          "type": "uint256"
        }
      ],
      "payable": false,
      "stateMutability": "view",
      "type": "function"
    },
    {
      "constant": false,
      "inputs": [
        {
          "name": "sender",
          "type": "address"
        }
      ],
      "name": "initialize",
      "outputs": [],
      "payable": false,
      "stateMutability": "nonpayable",
      "type": "function"
    },
    {
      "constant": true,
      "inputs": [],
      "name": "moneyMarket",
      "outputs": [
        {
          "name": "",
          "type": "address"
        }
      ],
      "payable": false,
      "stateMutability": "view",
      "type": "function"
    },
    {
      "constant": false,
      "inputs": [
        {
          "name": "newOwner",
          "type": "address"
        }
      ],
      "name": "transferOwnership",
      "outputs": [],
      "payable": false,
      "stateMutability": "nonpayable",
      "type": "function"
    },
    {
      "constant": true,
      "inputs": [],
      "name": "poolCount",
      "outputs": [
        {
          "name": "",
          "type": "uint256"
        }
      ],
      "payable": false,
      "stateMutability": "view",
      "type": "function"
    },
    {
      "constant": true,
      "inputs": [],
      "name": "token",
      "outputs": [
        {
          "name": "",
          "type": "address"
        }
      ],
      "payable": false,
      "stateMutability": "view",
      "type": "function"
    },
    {
      "anonymous": false,
      "inputs": [
        {
          "indexed": true,
          "name": "pool",
          "type": "address"
        },
        {
          "indexed": true,
          "name": "number",
          "type": "uint256"
        }
      ],
      "name": "PoolCreated",
      "type": "event"
    },
    {
      "anonymous": false,
      "inputs": [
        {
          "indexed": false,
          "name": "durationInBlocks",
          "type": "uint256"
        }
      ],
      "name": "OpenDurationChanged",
      "type": "event"
    },
    {
      "anonymous": false,
      "inputs": [
        {
          "indexed": false,
          "name": "durationInBlocks",
          "type": "uint256"
        }
      ],
      "name": "LockDurationChanged",
      "type": "event"
    },
    {
      "anonymous": false,
      "inputs": [
        {
          "indexed": false,
          "name": "ticketPrice",
          "type": "int256"
        }
      ],
      "name": "TicketPriceChanged",
      "type": "event"
    },
    {
      "anonymous": false,
      "inputs": [
        {
          "indexed": false,
          "name": "feeFractionFixedPoint18",
          "type": "int256"
        }
      ],
      "name": "FeeFractionChanged",
      "type": "event"
    },
    {
      "anonymous": false,
      "inputs": [
        {
          "indexed": false,
          "name": "allowLockAnytime",
          "type": "bool"
        }
      ],
      "name": "AllowLockAnytimeChanged",
      "type": "event"
    },
    {
      "anonymous": false,
      "inputs": [
        {
          "indexed": true,
          "name": "previousOwner",
          "type": "address"
        },
        {
          "indexed": true,
          "name": "newOwner",
          "type": "address"
        }
      ],
      "name": "OwnershipTransferred",
      "type": "event"
    },
    {
      "constant": false,
      "inputs": [
        {
          "name": "_owner",
          "type": "address"
        },
        {
          "name": "_moneyMarket",
          "type": "address"
        },
        {
          "name": "_token",
          "type": "address"
        },
        {
          "name": "_openDurationInBlocks",
          "type": "uint256"
        },
        {
          "name": "_lockDurationInBlocks",
          "type": "uint256"
        },
        {
          "name": "_ticketPrice",
          "type": "int256"
        },
        {
          "name": "_feeFractionFixedPoint18",
          "type": "int256"
        },
        {
          "name": "_allowLockAnytime",
          "type": "bool"
        }
      ],
      "name": "init",
      "outputs": [],
      "payable": false,
      "stateMutability": "nonpayable",
      "type": "function"
    },
    {
      "constant": true,
      "inputs": [],
      "name": "getInfo",
      "outputs": [
        {
          "name": "_currentPool",
          "type": "address"
        },
        {
          "name": "_openDurationInBlocks",
          "type": "uint256"
        },
        {
          "name": "_lockDurationInBlocks",
          "type": "uint256"
        },
        {
          "name": "_ticketPrice",
          "type": "int256"
        },
        {
          "name": "_feeFractionFixedPoint18",
          "type": "int256"
        },
        {
          "name": "_poolCount",
          "type": "uint256"
        }
      ],
      "payable": false,
      "stateMutability": "view",
      "type": "function"
    },
    {
      "constant": false,
      "inputs": [],
      "name": "createPool",
      "outputs": [
        {
          "name": "",
          "type": "address"
        }
      ],
      "payable": false,
      "stateMutability": "nonpayable",
      "type": "function"
    },
    {
      "constant": false,
      "inputs": [
        {
          "name": "_openDurationInBlocks",
          "type": "uint256"
        }
      ],
      "name": "setOpenDuration",
      "outputs": [],
      "payable": false,
      "stateMutability": "nonpayable",
      "type": "function"
    },
    {
      "constant": false,
      "inputs": [
        {
          "name": "_lockDurationInBlocks",
          "type": "uint256"
        }
      ],
      "name": "setLockDuration",
      "outputs": [],
      "payable": false,
      "stateMutability": "nonpayable",
      "type": "function"
    },
    {
      "constant": false,
      "inputs": [
        {
          "name": "_ticketPrice",
          "type": "int256"
        }
      ],
      "name": "setTicketPrice",
      "outputs": [],
      "payable": false,
      "stateMutability": "nonpayable",
      "type": "function"
    },
    {
      "constant": false,
      "inputs": [
        {
          "name": "_feeFractionFixedPoint18",
          "type": "int256"
        }
      ],
      "name": "setFeeFraction",
      "outputs": [],
      "payable": false,
      "stateMutability": "nonpayable",
      "type": "function"
    },
    {
      "constant": false,
      "inputs": [
        {
          "name": "_allowLockAnytime",
          "type": "bool"
        }
      ],
      "name": "setAllowLockAnytime",
      "outputs": [],
      "payable": false,
      "stateMutability": "nonpayable",
      "type": "function"
    }
  ],
  "bytecode": "0x608060405234801561001057600080fd5b506140be806100206000396000f3fe608060405260043610620001195763ffffffff60e060020a6000350416630317087081146200011e57806306fff7ba146200014e5780630ec10b051462000178578063111c176014620001a65780631209b1f614620001d25780633f715df214620001ea5780634cb7d99e14620002525780634eb665af14620002805780635a9b0b8914620002ae578063692b69ae1462000303578063715018a614620003375780638da5cb5b146200034f5780638f32d59b14620003675780639a06b113146200037f578063a79063cd1462000397578063c244a58614620003af578063c4d66de814620003df578063d6d75f511462000416578063f2fde38b146200042e578063f525cb681462000465578063fc0c546a146200047d575b600080fd5b3480156200012b57600080fd5b506200014c600480360360208110156200014457600080fd5b503562000495565b005b3480156200015b57600080fd5b5062000166620004b9565b60408051918252519081900360200190f35b3480156200018557600080fd5b506200014c600480360360208110156200019e57600080fd5b5035620004bf565b348015620001b357600080fd5b50620001be620004e0565b604080519115158252519081900360200190f35b348015620001df57600080fd5b5062000166620004e9565b348015620001f757600080fd5b506200014c60048036036101008110156200021157600080fd5b50600160a060020a03813581169160208101358216916040820135169060608101359060808101359060a08101359060c08101359060e001351515620004ef565b3480156200025f57600080fd5b506200014c600480360360208110156200027857600080fd5b50356200083d565b3480156200028d57600080fd5b506200014c60048036036020811015620002a657600080fd5b50356200085e565b348015620002bb57600080fd5b50620002c66200087f565b60408051600160a060020a0390971687526020870195909552858501939093526060850191909152608084015260a0830152519081900360c00190f35b3480156200031057600080fd5b506200031b620008a5565b60408051600160a060020a039092168252519081900360200190f35b3480156200034457600080fd5b506200014c620008b4565b3480156200035c57600080fd5b506200031b62000903565b3480156200037457600080fd5b50620001be62000912565b3480156200038c57600080fd5b506200031b62000923565b348015620003a457600080fd5b506200016662000bbe565b348015620003bc57600080fd5b506200014c60048036036020811015620003d557600080fd5b5035151562000bc4565b348015620003ec57600080fd5b506200014c600480360360208110156200040557600080fd5b5035600160a060020a031662000be5565b3480156200042357600080fd5b506200031b62000cea565b3480156200043b57600080fd5b506200014c600480360360208110156200045457600080fd5b5035600160a060020a031662000cf9565b3480156200047257600080fd5b506200016662000d1a565b3480156200048a57600080fd5b506200031b62000d20565b6200049f62000912565b1515620004ab57600080fd5b620004b68162000d2f565b50565b606a5481565b620004c962000912565b1515620004d557600080fd5b620004b68162000dd5565b606e5460ff1681565b606b5481565b600054610100900460ff16806200050b57506200050b62000e7c565b806200051a575060005460ff16155b15156200057a576040805160e560020a62461bcd02815260206004820152602e6024820152600080516020620040738339815191526044820152609260020a6d195b881a5b9a5d1a585b1a5e995902606482015290519081900360840190fd5b60008054600161010061ff00198316811760ff1916919091179092550460ff16600160a060020a0389161515620005fb576040805160e560020a62461bcd02815260206004820181905260248201527f6f776e65722063616e6e6f7420626520746865206e756c6c2061646472657373604482015290519081900360640190fd5b600160a060020a03881615156200065c576040805160e560020a62461bcd02815260206004820152601c60248201527f6d6f6e6579206d61726b65742061646472657373206973207a65726f00000000604482015290519081900360640190fd5b600160a060020a0387161515620006b8576040805160e560020a62461bcd0281526020600482015260156024820152605860020a74746f6b656e2061646472657373206973207a65726f02604482015290519081900360640190fd5b620006c38962000be5565b60678054600160a060020a03808a16600160a060020a031992831617909255606680548b8416921691909117908190556040805160e060020a636f307dc302815290519190921691636f307dc3916004808301926020929190829003018186803b1580156200073157600080fd5b505afa15801562000746573d6000803e3d6000fd5b505050506040513d60208110156200075d57600080fd5b5051600160a060020a03888116911614620007e4576040805160e560020a62461bcd02815260206004820152603660248201527f746f6b656e20646f6573206e6f74206d617463682074686520756e6465726c796044820152605160020a7534b7339036b7b732bc9036b0b935b2ba103a37b5b2b702606482015290519081900360840190fd5b620007ef8362000e82565b620007fa8562000f78565b620008058662000dd5565b620008108462000d2f565b6200081b826200101f565b600080549115156101000261ff00199092169190911790555050505050505050565b6200084762000912565b15156200085357600080fd5b620004b68162000e82565b6200086862000912565b15156200087457600080fd5b620004b68162000f78565b606854606954606a54606b54606c54606d54600160a060020a0390951694909192939495565b606854600160a060020a031681565b620008be62000912565b1515620008ca57600080fd5b603354604051600091600160a060020a03169060008051602062004053833981519152908390a360338054600160a060020a0319169055565b603354600160a060020a031690565b603354600160a060020a0316331490565b60006200092f62000912565b15156200093b57600080fd5b606854600090600160a060020a03161580620009d757506068546040805160e060020a63c19d93fb0281529051600392600160a060020a03169163c19d93fb916004808301926020929190829003018186803b1580156200099b57600080fd5b505afa158015620009b0573d6000803e3d6000fd5b505050506040513d6020811015620009c757600080fd5b50516003811115620009d557fe5b145b905080151562000a31576040805160e560020a62461bcd02815260206004820152601f60248201527f746865206c61737420706f6f6c20686173206e6f7420636f6d706c6574656400604482015290519081900360640190fd5b606654606754606954606a54606b54606c54606e54600160a060020a03968716969095169443909401939284019260ff1662000a6c620010e1565b600160a060020a0397881681529590961660208601526040808601949094526060850192909252608084015260a083015291151560c082015290519081900360e001906000f08015801562000ac5573d6000803e3d6000fd5b5060688054600160a060020a031916600160a060020a0392831617908190551663c4d66de862000af462000903565b6040518263ffffffff1660e060020a0281526004018082600160a060020a0316600160a060020a03168152602001915050600060405180830381600087803b15801562000b4057600080fd5b505af115801562000b55573d6000803e3d6000fd5b5050606d5462000b7092509050600163ffffffff6200106616565b606d819055606854604051600160a060020a03909116907f641e49906554552c8c33d7e09e02d1270590f405bc1da0c7b99a9c2808abdd0590600090a35050606854600160a060020a031690565b60695481565b62000bce62000912565b151562000bda57600080fd5b620004b6816200101f565b600054610100900460ff168062000c01575062000c0162000e7c565b8062000c10575060005460ff16155b151562000c70576040805160e560020a62461bcd02815260206004820152602e6024820152600080516020620040738339815191526044820152609260020a6d195b881a5b9a5d1a585b1a5e995902606482015290519081900360840190fd5b60008054600161010061ff00198316811760ff191691909117835560338054600160a060020a031916600160a060020a0386811691909117918290556040519290930460ff16939216919060008051602062004053833981519152908290a3600080549115156101000261ff001990921691909117905550565b606654600160a060020a031681565b62000d0362000912565b151562000d0f57600080fd5b620004b68162001080565b606d5481565b606754600160a060020a031681565b6000811362000d9a576040805160e560020a62461bcd02815260206004820152602660248201527f7469636b6574207072696365206d757374206265206772656174657220746861604482015260d060020a656e207a65726f02606482015290519081900360840190fd5b606b8190556040805182815290517fec17176c7dffe909ac64c9e6bbdce88e91dfcddb5e8a03f3ddbf1690caf4b7239181900360200190a150565b6000811162000e41576040805160e560020a62461bcd02815260206004820152602760248201527f6f70656e206475726174696f6e206d7573742062652067726561746572207468604482015260c860020a66616e207a65726f02606482015290519081900360840190fd5b60698190556040805182815290517f6d1250546f563460f00608ae5e8aaac83be9200351bdc2efb4cd7e81a70c50269181900360200190a150565b303b1590565b600081121562000edc576040805160e560020a62461bcd02815260206004820152601b60248201527f666565206d757374206265207a65726f206f7220677265617465720000000000604482015290519081900360640190fd5b670de0b6b3a764000081131562000f3d576040805160e560020a62461bcd02815260206004820152601e60248201527f666565206672616374696f6e206d7573742062652031206f72206c6573730000604482015290519081900360640190fd5b606c8190556040805182815290517fff7b41a13b56d762082de7ea6003d42a4b7ccaf243f0f321d36a6ef8f8eaa90a9181900360200190a150565b6000811162000fe4576040805160e560020a62461bcd02815260206004820152602760248201527f626f6e64206475726174696f6e206d7573742062652067726561746572207468604482015260c860020a66616e207a65726f02606482015290519081900360840190fd5b606a8190556040805182815290517f2f3e80331a3408f53c07382032b13f35a103de501ea98535649d337e3cf1d0c69181900360200190a150565b606e805482151560ff19909116811790915560408051918252517f52a6bae4a0f56f80f354b2791c6c0b2c55a1b32caf4a9fbc040dc0c98b8284579181900360200190a150565b6000828201838110156200107957600080fd5b9392505050565b600160a060020a03811615156200109657600080fd5b603354604051600160a060020a038084169216906000805160206200405383398151915290600090a360338054600160a060020a031916600160a060020a0392909216919091179055565b604051612f6080620010f38339019056fe60806040523480156200001157600080fd5b5060405160e08062002f60833981018060405260e08110156200003357600080fd5b508051602082015160408301516060840151608085015160a086015160c0909601519495939492939192909190848411620000f557604080517f08c379a000000000000000000000000000000000000000000000000000000000815260206004820152602760248201527f6c6f636b20656e6420626c6f636b206973206e6f74206166746572207374617260448201527f7420626c6f636b00000000000000000000000000000000000000000000000000606482015290519081900360840190fd5b600160a060020a03871615156200019357604080517f08c379a000000000000000000000000000000000000000000000000000000000815260206004820152602360248201527f6d6f6e6579206d61726b657420616464726573732063616e6e6f74206265207a60448201527f65726f0000000000000000000000000000000000000000000000000000000000606482015290519081900360840190fd5b600160a060020a03861615156200020b57604080517f08c379a000000000000000000000000000000000000000000000000000000000815260206004820152601c60248201527f746f6b656e20616464726573732063616e6e6f74206265207a65726f00000000604482015290519081900360640190fd5b60008313620002a157604080517f08c379a000000000000000000000000000000000000000000000000000000000815260206004820152602660248201527f7469636b6574207072696365206d75737420626520677265617465722074686160448201527f6e207a65726f0000000000000000000000000000000000000000000000000000606482015290519081900360840190fd5b60008212156200031257604080517f08c379a000000000000000000000000000000000000000000000000000000000815260206004820152601b60248201527f666565206d757374206265207a65726f206f7220677265617465720000000000604482015290519081900360640190fd5b670de0b6b3a76400008213156200038a57604080517f08c379a000000000000000000000000000000000000000000000000000000000815260206004820181905260248201527f666565206672616374696f6e206d757374206265206c657373207468616e2031604482015290519081900360640190fd5b604080517fd6c1528b0000000000000000000000000000000000000000000000000000000081526004810184905260126024820152905173__FixidityLib___________________________9163d6c1528b916044808301926020929190829003018186803b158015620003fd57600080fd5b505af415801562000412573d6000803e3d6000fd5b505050506040513d60208110156200042957600080fd5b5051607255604080517fbd5cbd6200000000000000000000000000000000000000000000000000000000815260048101859052905173__FixidityLib___________________________9163bd5cbd62916024808301926020929190829003018186803b1580156200049a57600080fd5b505af4158015620004af573d6000803e3d6000fd5b505050506040513d6020811015620004c657600080fd5b5051607155604080517f9075789e00000000000000000000000000000000000000000000000000000000815260746004828101919091527f506f6f6c506f6f6c00000000000000000000000000000000000000000000000060248301526044820152905173__SortitionSumTreeFactory_______________91639075789e916064808301926000929190829003018186803b1580156200056657600080fd5b505af41580156200057b573d6000803e3d6000fd5b5050606b805460ff191690555050606f8054600160a060020a03988916600160a060020a031991821617909155607080549790981696169590951790955550606791909155606855607380549115156101000261ff00199092169190911790555061297480620005ec6000396000f3fe6080604052600436106101455763ffffffff60e060020a60003504166301670ba9811461014a5780630cbb0f8314610176578063111c17601461019d5780631d1065d5146101c65780633ccfd60b146101db5780634fd43b3f146101f05780635a9b0b891461021a57806362afd4b0146102a057806369e15404146102b557806370a08231146102ca578063715018a6146102fd5780637db6a4e41461031257806383ccfb8414610375578063862f25471461039f5780638da5cb5b146103b45780638f32d59b146103e55780639cd42401146103fa578063a69df4b51461040f578063c19d93fb14610424578063c4d66de81461045d578063d1472d3114610490578063d6d75f51146104a5578063e4db53e9146104ba578063ea3a1499146104e4578063ed7a4e0b14610517578063f2fde38b1461052c578063fc0c546a1461055f575b600080fd5b34801561015657600080fd5b506101746004803603602081101561016d57600080fd5b5035610574565b005b34801561018257600080fd5b5061018b61095e565b60408051918252519081900360200190f35b3480156101a957600080fd5b506101b2610964565b604080519115158252519081900360200190f35b3480156101d257600080fd5b5061018b610972565b3480156101e757600080fd5b506101746109ec565b3480156101fc57600080fd5b506101746004803603602081101561021357600080fd5b5035610c42565b34801561022657600080fd5b5061022f6113b6565b604051808c81526020018b81526020018a815260200189600381111561025157fe5b60ff168152600160a060020a039098166020890152506040808801969096526060870194909452608086019290925260a085015260c084015260e0830152519081900361010001945092505050f35b3480156102ac57600080fd5b5061018b6116f8565b3480156102c157600080fd5b5061018b61170a565b3480156102d657600080fd5b5061018b600480360360208110156102ed57600080fd5b5035600160a060020a0316611779565b34801561030957600080fd5b506101746117ad565b34801561031e57600080fd5b506103456004803603602081101561033557600080fd5b5035600160a060020a03166117f8565b60408051600160a060020a0390951685526020850193909352838301919091526060830152519081900360800190f35b34801561038157600080fd5b506101746004803603602081101561039857600080fd5b50356118bd565b3480156103ab57600080fd5b5061018b611b3a565b3480156103c057600080fd5b506103c9611b5e565b60408051600160a060020a039092168252519081900360200190f35b3480156103f157600080fd5b506101b2611b6d565b34801561040657600080fd5b5061018b611b7e565b34801561041b57600080fd5b50610174611d1e565b34801561043057600080fd5b50610439612028565b6040518082600381111561044957fe5b60ff16815260200191505060405180910390f35b34801561046957600080fd5b506101746004803603602081101561048057600080fd5b5035600160a060020a0316612031565b34801561049c57600080fd5b5061018b612141565b3480156104b157600080fd5b506103c96121e4565b3480156104c657600080fd5b5061018b600480360360208110156104dd57600080fd5b50356121f3565b3480156104f057600080fd5b5061018b6004803603602081101561050757600080fd5b5035600160a060020a0316612484565b34801561052357600080fd5b506103c9612607565b34801561053857600080fd5b506101746004803603602081101561054f57600080fd5b5035600160a060020a031661261c565b34801561056b57600080fd5b506103c961263b565b6000606b5460ff16600381111561058757fe5b146105d3576040805160e560020a62461bcd0281526020600482015260116024820152607960020a7039ba30ba329034b9903737ba1037b832b702604482015290519081900360640190fd5b6105db611b6d565b15156105e657600080fd5b607354610100900460ff16156105ff5743606755610679565b606754431015610679576040805160e560020a62461bcd02815260206004820152603460248201527f706f6f6c2063616e206f6e6c79206265206c6f636b6564206f6e206f722061666044820152606060020a73746572206c6f636b20737461727420626c6f636b02606482015290519081900360840190fd5b8015156106d0576040805160e560020a62461bcd02815260206004820152601b60248201527f7365637265742068617368206d75737420626520646566696e65640000000000604482015290519081900360640190fd5b6069819055606b805460ff191660011790556066546000121561093257600073__FixidityLib___________________________630e9989936066546040518263ffffffff1660e060020a0281526004018082815260200191505060206040518083038186803b15801561074357600080fd5b505af4158015610757573d6000803e3d6000fd5b505050506040513d602081101561076d57600080fd5b5051607054606f546040805160e060020a63095ea7b3028152600160a060020a03928316600482015260248101859052905193945091169163095ea7b3916044808201926020929091908290030181600087803b1580156107cd57600080fd5b505af11580156107e1573d6000803e3d6000fd5b505050506040513d60208110156107f757600080fd5b5051151561085e576040805160e560020a62461bcd028152602060048201526024808201527f636f756c64206e6f7420617070726f7665206d6f6e6579206d61726b65742073604482015260e260020a631c195b9902606482015290519081900360840190fd5b606f546040805160e360020a63140e25ad028152600481018490529051600160a060020a039092169163a0712d68916024808201926020929091908290030181600087803b1580156108af57600080fd5b505af11580156108c3573d6000803e3d6000fd5b505050506040513d60208110156108d957600080fd5b505115610930576040805160e560020a62461bcd02815260206004820152601d60248201527f636f756c64206e6f7420737570706c79206d6f6e6579206d61726b6574000000604482015290519081900360640190fd5b505b6040517f2e136745550967f28b779ce8c395ca060a2f844edfb5b06631fe677f66f9e30590600090a150565b606e5481565b607354610100900460ff1681565b606f546040805160e460020a630ae9d70b0281529051600092600160a060020a03169163ae9d70b0916004808301926020929190829003018186803b1580156109ba57600080fd5b505afa1580156109ce573d6000803e3d6000fd5b505050506040513d60208110156109e457600080fd5b505190505b90565b6109f53361264a565b1515610a3f576040805160e560020a62461bcd02815260206004820152600e6024820152609060020a6d656e7472616e742065786973747302604482015290519081900360640190fd5b6002606b5460ff166003811115610a5257fe5b1480610a6e57506003606b5460ff166003811115610a6c57fe5b145b1515610ac4576040805160e560020a62461bcd02815260206004820152601a60248201527f706f6f6c20686173206e6f74206265656e20756e6c6f636b6564000000000000604482015290519081900360640190fd5b336000818152606d6020526040812091610add90611779565b905060008113610b37576040805160e560020a62461bcd02815260206004820152601d60248201527f656e7472616e742068617320616c72656164792077697468647261776e000000604482015290519081900360640190fd5b6003820180548201905560408051828152905133917f6feafc3039dc558ee6f547c450318c2e74b8844cacf0f75c0f33df7360ba7b6e919081900360200190a26070546040805160e060020a63a9059cbb028152336004820152602481018490529051600160a060020a039092169163a9059cbb916044808201926020929091908290030181600087803b158015610bce57600080fd5b505af1158015610be2573d6000803e3d6000fd5b505050506040513d6020811015610bf857600080fd5b50511515610c3e576040805160e560020a62461bcd02815260206004820152601b6024820152600080516020612929833981519152604482015290519081900360640190fd5b5050565b6000606b5460ff166003811115610c5557fe5b14610ca1576040805160e560020a62461bcd0281526020600482015260116024820152607960020a7039ba30ba329034b9903737ba1037b832b702604482015290519081900360640190fd5b60008113610d14576040805160e560020a62461bcd02815260206004820152602f60248201527f6e756d626572206f66207469636b657473206973206c657373207468616e206f6044820152608860020a6e7220657175616c20746f207a65726f02606482015290519081900360840190fd5b600073__FixidityLib___________________________63bd5cbd62836040518263ffffffff1660e060020a0281526004018082815260200191505060206040518083038186803b158015610d6857600080fd5b505af4158015610d7c573d6000803e3d6000fd5b505050506040513d6020811015610d9257600080fd5b50516071546040805160e360020a63078861150281526004810192909252602482018390525191925060009173__FixidityLib___________________________91633c4308a8916044808301926020929190829003018186803b158015610df957600080fd5b505af4158015610e0d573d6000803e3d6000fd5b505050506040513d6020811015610e2357600080fd5b50516040805160e060020a630e99899302815260048101839052905191925060009173__FixidityLib___________________________91630e998993916024808301926020929190829003018186803b158015610e8057600080fd5b505af4158015610e94573d6000803e3d6000fd5b505050506040513d6020811015610eaa57600080fd5b50516070546040805160e060020a6323b872dd028152336004820152306024820152604481018490529051929350600160a060020a03909116916323b872dd916064808201926020929091908290030181600087803b158015610f0c57600080fd5b505af1158015610f20573d6000803e3d6000fd5b505050506040513d6020811015610f3657600080fd5b50511515610f89576040805160e560020a62461bcd0281526020600482015260156024820152605a60020a741d1bdad95b881d1c985b9cd9995c8819985a5b195902604482015290519081900360640190fd5b610f923361264a565b1561107557336000908152606d602090815260409182902060010154825160e060020a63a5f3c23b028152600481019190915260248101859052915173__FixidityLib___________________________9263a5f3c23b926044808301939192829003018186803b15801561100657600080fd5b505af415801561101a573d6000803e3d6000fd5b505050506040513d602081101561103057600080fd5b5051336000908152606d6020526040902060018101919091556002015461105d908563ffffffff61266b16565b336000908152606d60205260409020600201556110ea565b60408051608081018252338082526020808301868152838501898152600060608601818152948152606d9093529490912092518354600160a060020a031916600160a060020a03909116178355516001808401919091559251600283015551600390910155606e546110e69161266b565b606e555b336000908152606d6020908152604080832060010154815160e060020a630e9989930281526004810191909152905173__FixidityLib___________________________92630e9989939260248082019391829003018186803b15801561115057600080fd5b505af4158015611164573d6000803e3d6000fd5b505050506040513d602081101561117a57600080fd5b50516040805160e160020a631712e1c50281526074600482015260c260020a67141bdbdb141bdbdb02602482015260448101839052336064820152905191925073__SortitionSumTreeFactory_______________91632e25c38a91608480820192600092909190829003018186803b1580156111f657600080fd5b505af415801561120a573d6000803e3d6000fd5b5050505073__FixidityLib___________________________63a5f3c23b606654856040518363ffffffff1660e060020a028152600401808381526020018281526020019250505060206040518083038186803b15801561126a57600080fd5b505af415801561127e573d6000803e3d6000fd5b505050506040513d602081101561129457600080fd5b50516066556040805160e160020a633de0a075028152905161131d9173__FixidityLib___________________________91637bc140ea91600480820192602092909190829003018186803b1580156112ec57600080fd5b505af4158015611300573d6000803e3d6000fd5b505050506040513d602081101561131657600080fd5b50516121f3565b6066541315611375576040805160e560020a62461bcd0281526020600482015260196024820152603860020a78706f6f6c2073697a652065786365656473206d6178696d756d02604482015290519081900360640190fd5b6040805186815260208101849052815133927fbae340cbbad65e770c316b0667f457021a64c3d9bd20aa1361bf0f9ca3ef459e928290030190a25050505050565b600080600080600080600080600080600073__FixidityLib___________________________630e9989936066546040518263ffffffff1660e060020a0281526004018082815260200191505060206040518083038186803b15801561141b57600080fd5b505af415801561142f573d6000803e3d6000fd5b505050506040513d602081101561144557600080fd5b5051606754606854606b54607354606c546040805160e060020a630e99899302815260048101929092525160ff9093169262010000909204600160a060020a03169173__FixidityLib___________________________91630e998993916024808301926020929190829003018186803b1580156114c257600080fd5b505af41580156114d6573d6000803e3d6000fd5b505050506040513d60208110156114ec57600080fd5b50516071546040805160e060020a630e99899302815260048101929092525173__FixidityLib___________________________91630e998993916024808301926020929190829003018186803b15801561154657600080fd5b505af415801561155a573d6000803e3d6000fd5b505050506040513d602081101561157057600080fd5b5051606e546040805160e160020a633de0a075028152905173__FixidityLib___________________________91630e998993916115d0918491637bc140ea91600480820192602092909190829003018186803b1580156112ec57600080fd5b6040518263ffffffff1660e060020a0281526004018082815260200191505060206040518083038186803b15801561160757600080fd5b505af415801561161b573d6000803e3d6000fd5b505050506040513d602081101561163157600080fd5b505173__FixidityLib___________________________63393ca446611655611b7e565b6040805160e060020a63ffffffff8516028152600481019290925260126024830152516044808301926020929190829003018186803b15801561169757600080fd5b505af41580156116ab573d6000803e3d6000fd5b505050506040513d60208110156116c157600080fd5b81019080805190602001909291905050506069549a509a509a509a509a509a509a509a509a509a509a50909192939495969798999a565b60c260020a67141bdbdb141bdbdb0281565b600073__FixidityLib___________________________630e99899361172e612684565b6040518263ffffffff1660e060020a0281526004018082815260200191505060206040518083038186803b15801561176557600080fd5b505af41580156109ce573d6000803e3d6000fd5b600160a060020a0381166000908152606d602052604081208161179b84612484565b6003909201549091039150505b919050565b6117b5611b6d565b15156117c057600080fd5b603354604051600091600160a060020a031690600080516020612909833981519152908390a360338054600160a060020a0319169055565b600160a060020a038082166000908152606d6020908152604080832080546001820154835160e060020a630e998993028152600481019190915292519495869586958695939092169273__FixidityLib___________________________92630e99899392602480840193829003018186803b15801561187757600080fd5b505af415801561188b573d6000803e3d6000fd5b505050506040513d60208110156118a157600080fd5b5051600283015460039093015491989097509195509350915050565b6118c5611b6d565b15156118d057600080fd5b6001606b5460ff1660038111156118e357fe5b14156118f1576118f1611d1e565b6002606b5460ff16600381111561190457fe5b14611955576040805160e560020a62461bcd0281526020600482015260166024820152605260020a751cdd185d19481b5d5cdd081899481d5b9b1bd8dad95902604482015290519081900360640190fd5b6069546040805160208082018590528251808303820181529183019092528051910120146119c8576040805160e560020a62461bcd0281526020600482015260156024820152605b60020a740e6cac6e4cae840c8decae640dcdee840dac2e8c6d02604482015290519081900360640190fd5b606a819055606b805460ff191660031790556119e26126e9565b607360026101000a815481600160a060020a030219169083600160a060020a031602179055506000611a1261170a565b90506000811115611af957607054600160a060020a031663a9059cbb611a36611b5e565b836040518363ffffffff1660e060020a0281526004018083600160a060020a0316600160a060020a0316815260200182815260200192505050602060405180830381600087803b158015611a8957600080fd5b505af1158015611a9d573d6000803e3d6000fd5b505050506040513d6020811015611ab357600080fd5b50511515611af9576040805160e560020a62461bcd02815260206004820152601b6024820152600080516020612929833981519152604482015290519081900360640190fd5b60735460405162010000909104600160a060020a0316907fb98509dde65aa654acedd81f9f27d9ad527e073af1e5632191e0594bfe44b27290600090a25050565b600073__FixidityLib___________________________630e99899361172e6127a8565b603354600160a060020a031690565b603354600160a060020a0316331490565b60675460685460009190038173__FixidityLib___________________________63d6c1528b611bac610972565b6040805160e060020a63ffffffff8516028152600481019290925260126024830152516044808301926020929190829003018186803b158015611bee57600080fd5b505af4158015611c02573d6000803e3d6000fd5b505050506040513d6020811015611c1857600080fd5b50516040805160e160020a635eae5eb102815260048101859052905191925073__FixidityLib___________________________91633c4308a8918491849163bd5cbd62916024808301926020929190829003018186803b158015611c7c57600080fd5b505af4158015611c90573d6000803e3d6000fd5b505050506040513d6020811015611ca657600080fd5b50516040805160e060020a63ffffffff861602815260048101939093526024830191909152516044808301926020929190829003018186803b158015611ceb57600080fd5b505af4158015611cff573d6000803e3d6000fd5b505050506040513d6020811015611d1557600080fd5b50519250505090565b6001606b5460ff166003811115611d3157fe5b14611d7f576040805160e560020a62461bcd0281526020600482015260136024820152606a60020a721cdd185d19481a5cc81b9bdd081b1bd8dad95902604482015290519081900360640190fd5b607354610100900460ff168015611dae5750611d99611b5e565b600160a060020a031633600160a060020a0316145b15611dbc5743606855611e15565b6068544311611e15576040805160e560020a62461bcd02815260206004820152601b60248201527f706f6f6c2063616e6e6f7420626520756e6c6f636b6564207965740000000000604482015290519081900360640190fd5b606f546040805160e060020a633af9e6690281523060048201529051600092600160a060020a031691633af9e66991602480830192602092919082900301818787803b158015611e6457600080fd5b505af1158015611e78573d6000803e3d6000fd5b505050506040513d6020811015611e8e57600080fd5b505190506000811115611fef57606f546040805160e060020a63852a12e3028152600481018490529051600160a060020a039092169163852a12e3916024808201926020929091908290030181600087803b158015611eec57600080fd5b505af1158015611f00573d6000803e3d6000fd5b505050506040513d6020811015611f1657600080fd5b505115611f6d576040805160e560020a62461bcd02815260206004820152601e60248201527f636f756c64206e6f742072656465656d2066726f6d20636f6d706f756e640000604482015290519081900360640190fd5b73__FixidityLib___________________________63bd5cbd62826040518263ffffffff1660e060020a0281526004018082815260200191505060206040518083038186803b158015611fbf57600080fd5b505af4158015611fd3573d6000803e3d6000fd5b505050506040513d6020811015611fe957600080fd5b5051606c555b606b805460ff191660021790556040517fde17ec5ba6f9b5379a238e2a199366faccaedccf87879284014517333da74e2690600090a150565b606b5460ff1681565b600054610100900460ff168061204a575061204a6127c0565b80612058575060005460ff16155b15156120c8576040805160e560020a62461bcd02815260206004820152602e60248201527f436f6e747261637420696e7374616e63652068617320616c72656164792062656044820152609260020a6d195b881a5b9a5d1a585b1a5e995902606482015290519081900360840190fd5b60008054600161010061ff00198316811760ff191691909117835560338054600160a060020a031916600160a060020a0386811691909117918290556040519290930460ff169392169190600080516020612909833981519152908290a3600080549115156101000261ff001990921691909117905550565b6068546000904311612155575060006109e9565b6121dd73__FixidityLib___________________________630e9989936066546040518263ffffffff1660e060020a0281526004018082815260200191505060206040518083038186803b1580156121ac57600080fd5b505af41580156121c0573d6000803e3d6000fd5b505050506040513d60208110156121d657600080fd5b50516127c6565b90506109e9565b606f54600160a060020a031681565b60008073__FixidityLib___________________________633c4308a8612218611b7e565b73__FixidityLib___________________________63bd5cbd6260026040518263ffffffff1660e060020a0281526004018082815260200191505060206040518083038186803b15801561226b57600080fd5b505af415801561227f573d6000803e3d6000fd5b505050506040513d602081101561229557600080fd5b50516040805160e060020a63ffffffff861602815260048101939093526024830191909152516044808301926020929190829003018186803b1580156122da57600080fd5b505af41580156122ee573d6000803e3d6000fd5b505050506040513d602081101561230457600080fd5b50516040805160e160020a635eae5eb102815260016004820152905191925073__FixidityLib___________________________9163f5984236918691849163a5f3c23b918791849163bd5cbd6291602480820192602092909190829003018186803b15801561237357600080fd5b505af4158015612387573d6000803e3d6000fd5b505050506040513d602081101561239d57600080fd5b50516040805160e060020a63ffffffff861602815260048101939093526024830191909152516044808301926020929190829003018186803b1580156123e257600080fd5b505af41580156123f6573d6000803e3d6000fd5b505050506040513d602081101561240c57600080fd5b50516040805160e060020a63ffffffff861602815260048101939093526024830191909152516044808301926020929190829003018186803b15801561245157600080fd5b505af4158015612465573d6000803e3d6000fd5b505050506040513d602081101561247b57600080fd5b50519392505050565b600160a060020a038082166000908152606d602052604081208054919290911615156124b45760009150506117a8565b60018101546003606b5460ff1660038111156124cc57fe5b1480156124ec5750607354600160a060020a038581166201000090920416145b156125815773__FixidityLib___________________________63a5f3c23b826125146127a8565b6040518363ffffffff1660e060020a028152600401808381526020018281526020019250505060206040518083038186803b15801561255257600080fd5b505af4158015612566573d6000803e3d6000fd5b505050506040513d602081101561257c57600080fd5b505190505b73__FixidityLib___________________________630e998993826040518263ffffffff1660e060020a0281526004018082815260200191505060206040518083038186803b1580156125d357600080fd5b505af41580156125e7573d6000803e3d6000fd5b505050506040513d60208110156125fd57600080fd5b5051949350505050565b607354620100009004600160a060020a031690565b612624611b6d565b151561262f57600080fd5b612638816127df565b50565b607054600160a060020a031681565b600160a060020a039081166000818152606d60205260409020549091161490565b60008282018381101561267d57600080fd5b9392505050565b600073__FixidityLib___________________________633c4308a86126a861283e565b6072546040518363ffffffff1660e060020a028152600401808381526020018281526020019250505060206040518083038186803b15801561176557600080fd5b60008060665413156127a05773__SortitionSumTreeFactory_______________6388c1d467607460c260020a67141bdbdb141bdbdb02612728612141565b6040518463ffffffff1660e060020a02815260040180848152602001838152602001828152602001935050505060206040518083038186803b15801561276d57600080fd5b505af4158015612781573d6000803e3d6000fd5b505050506040513d602081101561279757600080fd5b505190506109e9565b5060006109e9565b60006127b2612684565b6127ba61283e565b03905090565b303b1590565b60006127d96127d361289e565b836128ab565b92915050565b600160a060020a03811615156127f457600080fd5b603354604051600160a060020a0380841692169060008051602061290983398151915290600090a360338054600160a060020a031916600160a060020a0392909216919091179055565b600073__FixidityLib___________________________63b93ea812606c546066546040518363ffffffff1660e060020a028152600401808381526020018281526020019250505060206040518083038186803b15801561176557600080fd5b606a546000194301401890565b60008082836000038115156128bc57fe5b069050835b8181106128cd576128f3565b6040805160208082019390935281518082038401815290820190915280519101206128c1565b83818115156128fe57fe5b069594505050505056fe8be0079c531659141344cd1fd0a4f28419497f9722a3daafe3b4186f6b6457e0636f756c64206e6f74207472616e736665722077696e6e696e67730000000000a165627a7a723058204769d72f20df2f2e03275520a1a1bf5a4b7a4bade21582b03c847ee20b8f7f3c00298be0079c531659141344cd1fd0a4f28419497f9722a3daafe3b4186f6b6457e0436f6e747261637420696e7374616e63652068617320616c7265616479206265a165627a7a723058201f3d0a4de1955445e4765745010c82de6c6fb1680abf0558c9d85db904c76b000029",
  "source": "pragma solidity 0.5.0;\n\nimport \"openzeppelin-eth/contracts/ownership/Ownable.sol\";\nimport \"openzeppelin-eth/contracts/math/SafeMath.sol\";\nimport \"./Pool.sol\";\nimport \"./compound/ICErc20.sol\";\n\n/**\n * @title The Pool Manager contract for PoolTogether.\n * @author Brendan Asselstine\n * @notice Creates Pools and ensures that there is only one active Pool at a time.\n */\ncontract PoolManager is Ownable {\n  using SafeMath for uint256;\n\n  /**\n   * Emitted when a new Pool is created.\n   * @param pool The address of the new Pool contract\n   * @param number The index of the pool\n   */\n  event PoolCreated(address indexed pool, uint256 indexed number);\n\n  /**\n   * Emitted when the open duration is changed.\n   * @param durationInBlocks The new duration in blocks\n   */\n  event OpenDurationChanged(uint256 durationInBlocks);\n\n  /**\n   * Emitted when the lock duration is changed.\n   * @param durationInBlocks The new duration in blocks\n   */\n  event LockDurationChanged(uint256 durationInBlocks);\n\n  /**\n   * Emitted when the ticket price is changed\n   * @param ticketPrice The ticket price\n   */\n  event TicketPriceChanged(int256 ticketPrice);\n\n  /**\n   * Emitted when the fee fraction is changed\n   * @param feeFractionFixedPoint18 The new fee fraction encoded as a fixed point 18 decimal\n   */\n  event FeeFractionChanged(int256 feeFractionFixedPoint18);\n\n  /**\n   * Emitted when the allow lock anytime is changed\n   * @param allowLockAnytime The value of allow lock anytime\n   */\n  event AllowLockAnytimeChanged(bool allowLockAnytime);\n\n  /**\n   * The Compound cToken to supply and withdraw from\n   */\n  ICErc20 public moneyMarket;\n\n  /**\n   * The token to use for the moneyMarket\n   */\n  IERC20 public token;\n\n  /**\n   * The currently active Pool\n   */\n  Pool public currentPool;\n\n  /**\n   * The open duration in blocks to use for the next Pool\n   */\n  uint256 public openDurationInBlocks;\n\n  /**\n   * The lock duration in blocks to use for the next Pool\n   */\n  uint256 public lockDurationInBlocks;\n\n  /**\n   * The ticket price in tokens to use for the next Pool\n   */\n  int256 public ticketPrice;\n\n  /**\n   * The owner fee fraction to use for the next Pool\n   */\n  int256 private feeFractionFixedPoint18;\n\n  /**\n   * The number of Pools that have been created\n   */\n  uint256 public poolCount;\n\n  /**\n   * Whether to allow the owner of the next Pool to lock and unlock at anytime.\n   */\n  bool public allowLockAnytime;\n\n  /**\n   * @notice Initializes a new PoolManager contract.  Generally called through ZeppelinOS\n   * @param _owner The owner of the PoolManager.  They are able to change settings and are set as the owner of new lotteries.\n   * @param _moneyMarket The Compound Finance MoneyMarket contract to supply and withdraw tokens.\n   * @param _token The token to use for the Pools\n   * @param _openDurationInBlocks The duration between a Pool's creation and when it can be locked.\n   * @param _lockDurationInBlocks The duration that a Pool must be locked for.\n   * @param _ticketPrice The price that tickets should sell for\n   * @param _feeFractionFixedPoint18 The fraction of the gross winnings that should be transferred to the owner as the fee.  Is a fixed point 18 number.\n   * @param _allowLockAnytime Whether the owner can lock and unlock the pools at any time.\n   */\n  function init (\n    address _owner,\n    address _moneyMarket,\n    address _token,\n    uint256 _openDurationInBlocks,\n    uint256 _lockDurationInBlocks,\n    int256 _ticketPrice,\n    int256 _feeFractionFixedPoint18,\n    bool _allowLockAnytime\n  ) public initializer {\n    require(_owner != address(0), \"owner cannot be the null address\");\n    require(_moneyMarket != address(0), \"money market address is zero\");\n    require(_token != address(0), \"token address is zero\");\n    Ownable.initialize(_owner);\n    token = IERC20(_token);\n    moneyMarket = ICErc20(_moneyMarket);\n\n    require(_token == moneyMarket.underlying(), \"token does not match the underlying money market token\");\n\n    _setFeeFraction(_feeFractionFixedPoint18);\n    _setLockDuration(_lockDurationInBlocks);\n    _setOpenDuration(_openDurationInBlocks);\n    _setTicketPrice(_ticketPrice);\n    _setAllowLockAnytime(_allowLockAnytime);\n  }\n\n  /**\n   * @notice Returns information about the PoolManager\n   * @return A tuple containing:\n   *    _currentPool (the address of the current pool),\n   *    _openDurationInBlocks (the open duration in blocks to use for the next pool),\n   *    _lockDurationInBlocks (the lock duration in blocks to use for the next pool),\n   *    _ticketPrice (the ticket price in DAI for the next pool),\n   *    _feeFractionFixedPoint18 (the fee fraction for the next pool),\n   *    _poolCount (the number of pools that have been created)\n   */\n  function getInfo() public view returns (\n    address _currentPool,\n    uint256 _openDurationInBlocks,\n    uint256 _lockDurationInBlocks,\n    int256 _ticketPrice,\n    int256 _feeFractionFixedPoint18,\n    uint256 _poolCount\n  ) {\n    return (\n      address(currentPool),\n      openDurationInBlocks,\n      lockDurationInBlocks,\n      ticketPrice,\n      feeFractionFixedPoint18,\n      poolCount\n    );\n  }\n\n  /**\n   * @notice Creates a new Pool.  There can be no current pool, or the current pool must be complete.\n   * Can only be called by the owner.\n   * Fires the PoolCreated event.\n   * @return The address of the new pool\n   */\n  function createPool() external onlyOwner returns (address) {\n    bool canCreatePool = address(currentPool) == address(0) || currentPool.state() == Pool.State.COMPLETE;\n    require(canCreatePool, \"the last pool has not completed\");\n    currentPool = new Pool(\n      moneyMarket,\n      token,\n      block.number + openDurationInBlocks,\n      block.number + openDurationInBlocks + lockDurationInBlocks,\n      ticketPrice,\n      feeFractionFixedPoint18,\n      allowLockAnytime\n    );\n    currentPool.initialize(owner());\n    poolCount = poolCount.add(1);\n\n    emit PoolCreated(address(currentPool), poolCount);\n\n    return address(currentPool);\n  }\n\n  /**\n   * @notice Sets the open duration in blocks for new Pools.\n   * Fires the OpenDurationChanged event.\n   * Can only be set by the owner.  Fires the OpenDurationChanged event.\n   * @param _openDurationInBlocks The duration, in blocks, that a pool must be open for after it is created.\n   */\n  function setOpenDuration(uint256 _openDurationInBlocks) public onlyOwner {\n    _setOpenDuration(_openDurationInBlocks);\n  }\n\n  function _setOpenDuration(uint256 _openDurationInBlocks) internal {\n    require(_openDurationInBlocks > 0, \"open duration must be greater than zero\");\n    openDurationInBlocks = _openDurationInBlocks;\n\n    emit OpenDurationChanged(_openDurationInBlocks);\n  }\n\n  /**\n   * @notice Sets the lock duration in blocks for new Pools.\n   * Fires the LockDurationChanged event.\n   * Can only be set by the owner.  Only applies to subsequent Pools.\n   * @param _lockDurationInBlocks The duration, in blocks, that new pools must be locked for.\n   */\n  function setLockDuration(uint256 _lockDurationInBlocks) public onlyOwner {\n    _setLockDuration(_lockDurationInBlocks);\n  }\n\n  function _setLockDuration(uint256 _lockDurationInBlocks) internal {\n    require(_lockDurationInBlocks > 0, \"bond duration must be greater than zero\");\n    lockDurationInBlocks = _lockDurationInBlocks;\n\n    emit LockDurationChanged(_lockDurationInBlocks);\n  }\n\n  /**\n   * @notice Sets the ticket price in DAI.\n   * Fires the TicketPriceChanged event.\n   * Can only be called by the owner.  Only applies to subsequent Pools.\n   * @param _ticketPrice The new price for tickets.\n   */\n  function setTicketPrice(int256 _ticketPrice) public onlyOwner {\n    _setTicketPrice(_ticketPrice);\n  }\n\n  function _setTicketPrice(int256 _ticketPrice) internal {\n    require(_ticketPrice > 0, \"ticket price must be greater than zero\");\n    ticketPrice = _ticketPrice;\n\n    emit TicketPriceChanged(_ticketPrice);\n  }\n\n  /**\n   * @notice Sets the fee fraction paid out to the Pool owner.\n   * Fires the FeeFractionChanged event.\n   * Can only be called by the owner. Only applies to subsequent Pools.\n   * @param _feeFractionFixedPoint18 The fraction to pay out.\n   * Must be between 0 and 1 and formatted as a fixed point number with 18 decimals (as in Ether).\n   */\n  function setFeeFraction(int256 _feeFractionFixedPoint18) public onlyOwner {\n    _setFeeFraction(_feeFractionFixedPoint18);\n  }\n\n  function _setFeeFraction(int256 _feeFractionFixedPoint18) internal {\n    require(_feeFractionFixedPoint18 >= 0, \"fee must be zero or greater\");\n    require(_feeFractionFixedPoint18 <= 1000000000000000000, \"fee fraction must be 1 or less\");\n    feeFractionFixedPoint18 = _feeFractionFixedPoint18;\n\n    emit FeeFractionChanged(_feeFractionFixedPoint18);\n  }\n\n  /**\n   * @notice Allows the owner to set whether a Pool can be locked and unlocked at any time.\n   * Fires the AllowLockAnytimeChanged event.\n   * Can only be set by the owner.  Only applies to subsequent Pools.\n   * @param _allowLockAnytime True if the Pool can be locked and unlocked anytime, false otherwise.\n   */\n  function setAllowLockAnytime(bool _allowLockAnytime) public onlyOwner {\n    _setAllowLockAnytime(_allowLockAnytime);\n  }\n\n  function _setAllowLockAnytime(bool _allowLockAnytime) internal {\n    allowLockAnytime = _allowLockAnytime;\n\n    emit AllowLockAnytimeChanged(_allowLockAnytime);\n  }\n}\n",
  "sourcePath": "/Users/reaper/Sites/personal/pooltogether-contracts/contracts/PoolManager.sol",
  "compiler": {
    "name": "solc",
    "version": "0.5.0+commit.1d4f565a.Emscripten.clang"
  },
  "schemaVersion": "3.0.1",
  "updatedAt": "2019-07-10T20:01:12.420Z",
  "devdoc": {
    "author": "Brendan Asselstine",
    "methods": {
      "createPool()": {
        "return": "The address of the new pool"
      },
      "getInfo()": {
        "return": "A tuple containing:   _currentPool (the address of the current pool),   _openDurationInBlocks (the open duration in blocks to use for the next pool),   _lockDurationInBlocks (the lock duration in blocks to use for the next pool),   _ticketPrice (the ticket price in DAI for the next pool),   _feeFractionFixedPoint18 (the fee fraction for the next pool),   _poolCount (the number of pools that have been created)"
      },
      "init(address,address,address,uint256,uint256,int256,int256,bool)": {
        "params": {
          "_allowLockAnytime": "Whether the owner can lock and unlock the pools at any time.",
          "_feeFractionFixedPoint18": "The fraction of the gross winnings that should be transferred to the owner as the fee.  Is a fixed point 18 number.",
          "_lockDurationInBlocks": "The duration that a Pool must be locked for.",
          "_moneyMarket": "The Compound Finance MoneyMarket contract to supply and withdraw tokens.",
          "_openDurationInBlocks": "The duration between a Pool's creation and when it can be locked.",
          "_owner": "The owner of the PoolManager.  They are able to change settings and are set as the owner of new lotteries.",
          "_ticketPrice": "The price that tickets should sell for",
          "_token": "The token to use for the Pools"
        }
      },
      "initialize(address)": {
        "details": "The Ownable constructor sets the original `owner` of the contract to the sender account."
      },
      "isOwner()": {
        "return": "true if `msg.sender` is the owner of the contract."
      },
      "owner()": {
        "return": "the address of the owner."
      },
      "renounceOwnership()": {
        "details": "Allows the current owner to relinquish control of the contract."
      },
      "setAllowLockAnytime(bool)": {
        "params": {
          "_allowLockAnytime": "True if the Pool can be locked and unlocked anytime, false otherwise."
        }
      },
      "setFeeFraction(int256)": {
        "params": {
          "_feeFractionFixedPoint18": "The fraction to pay out. Must be between 0 and 1 and formatted as a fixed point number with 18 decimals (as in Ether)."
        }
      },
      "setLockDuration(uint256)": {
        "params": {
          "_lockDurationInBlocks": "The duration, in blocks, that new pools must be locked for."
        }
      },
      "setOpenDuration(uint256)": {
        "params": {
          "_openDurationInBlocks": "The duration, in blocks, that a pool must be open for after it is created."
        }
      },
      "setTicketPrice(int256)": {
        "params": {
          "_ticketPrice": "The new price for tickets."
        }
      },
      "transferOwnership(address)": {
        "details": "Allows the current owner to transfer control of the contract to a newOwner.",
        "params": {
          "newOwner": "The address to transfer ownership to."
        }
      }
    },
    "title": "The Pool Manager contract for PoolTogether."
  },
  "userdoc": {
    "methods": {
      "createPool()": {
        "notice": "Creates a new Pool.  There can be no current pool, or the current pool must be complete. Can only be called by the owner. Fires the PoolCreated event."
      },
      "getInfo()": {
        "notice": "Returns information about the PoolManager"
      },
      "init(address,address,address,uint256,uint256,int256,int256,bool)": {
        "notice": "Initializes a new PoolManager contract.  Generally called through ZeppelinOS"
      },
      "renounceOwnership()": {
        "notice": "Renouncing to ownership will leave the contract without an owner. It will not be possible to call the functions with the `onlyOwner` modifier anymore."
      },
      "setAllowLockAnytime(bool)": {
        "notice": "Allows the owner to set whether a Pool can be locked and unlocked at any time. Fires the AllowLockAnytimeChanged event. Can only be set by the owner.  Only applies to subsequent Pools."
      },
      "setFeeFraction(int256)": {
        "notice": "Sets the fee fraction paid out to the Pool owner. Fires the FeeFractionChanged event. Can only be called by the owner. Only applies to subsequent Pools."
      },
      "setLockDuration(uint256)": {
        "notice": "Sets the lock duration in blocks for new Pools. Fires the LockDurationChanged event. Can only be set by the owner.  Only applies to subsequent Pools."
      },
      "setOpenDuration(uint256)": {
        "notice": "Sets the open duration in blocks for new Pools. Fires the OpenDurationChanged event. Can only be set by the owner.  Fires the OpenDurationChanged event."
      },
      "setTicketPrice(int256)": {
        "notice": "Sets the ticket price in DAI. Fires the TicketPriceChanged event. Can only be called by the owner.  Only applies to subsequent Pools."
      }
    },
    "notice": "Creates Pools and ensures that there is only one active Pool at a time."
  }
}